:100000000C9462000C948A000C948A000C948A0070
:100010000C948A000C948A000C948A000C948A0038
:100020000C948A000C948A000C948A000C948A0028
:100030000C948A000C948A000C948A000C948A0018
:100040000C94EF040C948A000C945F050C94390511
:100050000C948A000C948A000C948A000C948A00F8
:100060000C948A000C948A000000000024002700F1
:100070002A0000000000250028002B0000000008D6
:10008000000201000003040700000000000000005F
:1000900000000000230026002900040404040404D6
:1000A0000404020202020202030303030303010227
:1000B00004081020408001020408102001020408F6
:1000C0001020910511241FBECFEFD8E0DEBFCDBFB9
:1000D00011E0A0E0B1E0E2EEF3E102C005900D9284
:1000E000A435B107D9F722E0A4E5B1E001C01D9223
:1000F000AD30B207E1F710E0C2E6D0E004C02197CE
:10010000FE010E94E909C136D107C9F70E94DE0548
:100110000C94EF090C940000CF92DF92EF92FF92C3
:10012000CF93DF93B0910102A0E08111AB2F8091BA
:10013000020290E0880F991FAC0140575F4FC090BA
:100140000702D0900802E0900902F0900A0230E025
:1001500020E0FA01C591D491E881B90190E080E0F6
:10016000EB23EA130AC02F5F3F4F6C157D058E0508
:100170009F0578F36FEF7FEFCB01DF91CF91FF9079
:10018000EF90DF90CF90089590E0FC01E458FF4F8E
:100190002491FC01E255FF4F3491FC01E656FF4FDC
:1001A000E491EE23C9F0222339F0233001F1A8F4C1
:1001B000213019F1223029F1F0E0EE0FFF1FEE5847
:1001C000FF4FA591B4918FB7F894EC91611126C0BF
:1001D00030953E233C938FBF08952730A9F02830F7
:1001E000C9F0243049F7809180008F7D03C0809151
:1001F00080008F7780938000DFCF84B58F7784BDB8
:10020000DBCF84B58F7DFBCF8091B0008F7780935B
:10021000B000D2CF8091B0008F7DF9CF3E2BDACFE6
:10022000CF93DF9390E0FC01E255FF4F2491865677
:100230009F4FFC0184918823D1F090E0880F991F93
:10024000FC01E859FF4FA591B491FC01EE58FF4F16
:10025000C591D491623071F49FB7F8943C91822F8C
:10026000809583238C93E8812E2B28839FBFDF9179
:10027000CF9108958FB7F894EC912E2B2C938FBFCC
:10028000F6CF3FB7F8948091550190915601A09117
:100290005701B091580126B5A89B05C02F3F19F012
:1002A0000196A11DB11D3FBFBA2FA92F982F8827F6
:1002B000BC01CD01620F711D811D911D42E0660FD1
:1002C000771F881F991F4A95D1F708958F929F92A3
:1002D000AF92BF92CF92DF92EF92FF924B015C01FF
:1002E0000E9441016B017C010E9441016C197D0952
:1002F0008E099F09683E734081059105A8F321E0AE
:10030000821A9108A108B10888EEC80E83E0D81EB1
:10031000E11CF11C81149104A104B10429F7FF90A0
:10032000EF90DF90CF90BF90AF909F908F90089507
:10033000CF92DF92EF92FF920F931F93CF93DF93B1
:10034000CDB7DEB7C054D1400FB6F894DEBF0FBEB4
:10035000CDBF2FB7F8948091590190915A01A09187
:100360005B01B0915C012FBF4091030250910402E8
:1003700060910502709106028C019D01041B150B12
:10038000260B370BB901A801403D574061057105A7
:1003900090F480910B02C05CDE4F0FB6F894DEBF84
:1003A0000FBECDBFDF91CF911F910F91FF90EF90C6
:1003B000DF90CF9008958093030290930402A0935E
:1003C0000502B09306021092FE011092FD011092F8
:1003D000FC011092FB011092FA0162E08091FF0192
:1003E0000E94100161E070E080E090E00E946601F0
:1003F00061E08091FF010E94100160E08091FF01A7
:100400000E94C400809100028551823020F58BE269
:1004100091E10197F1F762E08091FF010E941001E4
:1004200080910C0290E08230910538F0880F991F7E
:10043000880F991F05970197F1F7F89480E00E94C3
:100440008C006F3F7F4F8F4F9F4F61F410920B02D4
:10045000789480E0A0CF64E170E080E090E00E94BA
:100460006601D9CF81E00E948C006F3F7F4F8F4F94
:100470009F4F61F38E010F5F1F4F6E018FEBC81A04
:100480008EEFD80A780180E00E948C00F70160832B
:1004900071838283938381E00E948C00F7016483DF
:1004A000758386839783F8E0EF0EF11CEC14FD044E
:1004B00051F7789430E020E0F801C080D180E280EC
:1004C000F3804481558166817781FFEFCF16DF0687
:1004D000EF06FF0631F04F3F8FEF580768077807A8
:1004E00019F410920B02B5CFF90183E0F595E79569
:1004F0008A95E1F7E650FE4F8081880FC416D50635
:10050000E606F70610F180832F5F3F4F085F1F4F0D
:100510002832310589F64091FE012091FA0180913F
:10052000FB01280F3327331F8091FC01280F311D59
:100530008091FD01820F932F911D9927481719066D
:1005400081F681E080930B0226CF8160DCCFAF92F1
:10055000BF92CF92DF92EF92FF920F931F93CF93B0
:10056000DF936C017B018B01040F151FEB015E0112
:10057000AE18BF08C017D10759F06991D601ED91A7
:10058000FC910190F081E02DC6010995892B79F746
:10059000C501DF91CF911F910F91FF90EF90DF90F8
:1005A000CF90BF90AF900895FC01538D448D252FBF
:1005B00030E0842F90E0821B930B541710F0CF96FD
:1005C000089501970895FC01918D828D981761F02F
:1005D000A28DAE0FBF2FB11D5D968C91928D9F5F46
:1005E0009F73928F90E008958FEF9FEF0895FC0125
:1005F000918D828D981731F0828DE80FF11D858DD8
:1006000090E008958FEF9FEF0895FC01918D228D6A
:10061000892F90E0805C9F4F821B91098F739927EF
:1006200008958DE591E00E94050321E0892B09F4EE
:1006300020E0822F089580E090E0892B29F00E942D
:10064000110381110C9400000895FC01A48DA80FE2
:10065000B92FB11DA35ABF4F2C91848D90E0019604
:100660008F739927848FA689B7892C93A089B18924
:100670008C91837080648C93938D848D981306C0C5
:100680000288F389E02D80818F7D80830895EF9229
:10069000FF920F931F93CF93DF93EC0181E0888F3C
:1006A0009B8D8C8D98131AC0E889F989808185FF0C
:1006B00015C09FB7F894EE89FF896083E889F989AE
:1006C00080818370806480839FBF81E090E0DF91B0
:1006D000CF911F910F91FF90EF900895F62E0B8D03
:1006E00010E00F5F1F4F0F731127E02E8C8D8E11BE
:1006F0000CC00FB607FCFACFE889F989808185FF25
:10070000F5CFCE010E942503F1CFEB8DEC0FFD2F2D
:10071000F11DE35AFF4FF0829FB7F8940B8FEA89DF
:10072000FB8980818062CFCFCF93DF93EC01888DEE
:100730008823B9F0AA89BB89E889F9898C9185FD5C
:1007400003C0808186FD0DC00FB607FCF7CF8C91EA
:1007500085FFF2CF808185FFEDCFCE010E9425037A
:10076000E9CFDF91CF910895FC0101900020E9F7D6
:100770003197AF01481B590BBC018DE591E00C94FA
:10078000A7028F929F92AF92BF920F931F93CF9326
:10079000DF93CDB7DEB7A1970FB6F894DEBF0FBEDB
:1007A000CDBF19A2423008F44AE08E010F5D1F4F01
:1007B000842E912CB12CA12CA50194010E94C70973
:1007C000E62FB901CA01EA30F4F4E05DD801EE93F6
:1007D0008D01232B242B252B79F790E080E01097B7
:1007E00019F0CD010E94B403A1960FB6F894DEBFB4
:1007F0000FBECDBFDF91CF911F910F91BF90AF90F2
:100800009F908F900895E95CE1CFCF93DF930E9492
:10081000B403EC0182E191E00E94B4038C0F9D1FB0
:10082000DF91CF9108954F925F926F927F928F9256
:100830009F92AF92BF92CF92DF92EF92FF920F936F
:100840001F93CF936B017C01742EAC019B010E941E
:10085000C209882399F085E191E0CF911F910F9112
:10086000FF90EF90DF90CF90BF90AF909F908F90D0
:100870007F906F905F904F900C94B40346015701A6
:10088000E894B7F82FEF3FEF4FE75FE7C501B401FA
:100890000E94C20981110DC02FEF3FEF4FE75FE7C4
:1008A000C501B4010E94F80718161CF489E191E013
:1008B000D4CF2FEF3FEF4FE75FE4C701B6010E94AF
:1008C000500918161CF48DE191E0C7CF2FEF3FEFD0
:1008D0004FE75FECC701B6010E94F80787FDF3CF31
:1008E00020E030E0A901C701B6010E94F80710E03E
:1008F00000E087FF0AC06DE28DE591E00E944703AA
:100900008C01F7FAF094F7F8F094C0E060E070E042
:1009100080E09FE37C1641F020E030E040E251E4CB
:100920000E94FD07CF5FF6CFA70196010E948C07BA
:100930002B013C010E946F084B015C014AE00E94C0
:10094000C1037C01E00EF11ECC23C1F1C501B4014D
:100950000E949E089B01AC01C301B2010E948B075B
:100960004B015C016EE28DE591E00E944703E80EC9
:10097000F91EC15018F120E030E040E251E4C50119
:10098000B4010E9455092B013C010E946F084B01E4
:10099000B12CA12C4AE0C501B4010E94C103E80EAC
:1009A000F91EC501B4010E949E089B01AC01C30160
:1009B000B2010E948B074B015C01DBCFC701CF91D5
:1009C0001F910F91FF90EF90DF90CF90BF90AF906D
:1009D0009F908F907F906F905F904F9008951F929F
:1009E0000F920FB60F9211242F933F938F939F93E3
:1009F000AF93BF938091590190915A01A0915B01EF
:100A0000B0915C013091540123E0230F2D3758F54C
:100A10000196A11DB11D209354018093590190931B
:100A20005A01A0935B01B0935C01809155019091B4
:100A30005601A0915701B09158010196A11DB11D19
:100A40008093550190935601A0935701B09358019C
:100A5000BF91AF919F918F913F912F910F900FBEBA
:100A60000F901F90189526E8230F0296A11DB11D27
:100A7000D2CF1F920F920FB60F9211242F933F9354
:100A80004F935F936F937F938F939F93AF93BF9396
:100A9000EF93FF938DE591E00E942503FF91EF9185
:100AA000BF91AF919F918F917F916F915F914F9186
:100AB0003F912F910F900FBE0F901F9018951F928E
:100AC0000F920FB60F9211242F938F939F93EF9352
:100AD000FF93E0916D01F0916E018081E0917301CF
:100AE000F091740182FD1BC09081809176018F5F2F
:100AF0008F7320917701821741F0E0917601F0E049
:100B0000E35AFE4F958F80937601FF91EF919F916D
:100B10008F912F910F900FBE0F901F90189580818D
:100B2000F4CFEDE5F1E01382128288EE93E0A0E0CD
:100B3000B0E084839583A683B78384E091E09183BA
:100B4000808385EC90E09587848784EC90E097879C
:100B5000868780EC90E0918B808B81EC90E0938B8A
:100B6000828B82EC90E0958B848B86EC90E0978B67
:100B7000868B118E128E138E148EAAEFB1E082E056
:100B800015968C9315978BE016968C931697E0EB41
:100B9000F0E0E4911796EC931797ECE9F0E0E4911C
:100BA0001896EC93189740E85EE360E070E01D96BD
:100BB0004D935D936D937C9350970895789484B58D
:100BC000826084BD84B5816084BD85B5826085BD49
:100BD00085B5816085BD80916E00816080936E00D7
:100BE00010928100809181008260809381008091C9
:100BF000810081608093810080918000816080937A
:100C000080008091B10084608093B1008091B00039
:100C100081608093B00080917A00846080937A0034
:100C200080917A00826080937A0080917A0081605E
:100C300080937A0080917A00806880937A00109285
:100C4000C100E0916D01F0916E0182E08083E0913E
:100C50006901F0916A011082E0916B01F0916C01E1
:100C60008FEC808310927501E0917101F091720117
:100C700086E08083E0916F01F09170018081806156
:100C80008083E0916F01F0917001808188608083A2
:100C9000E0916F01F0917001808180688083E09124
:100CA0006F01F091700180818F7D808362E080917F
:100CB000FF010E9410012FB7F89480915901909183
:100CC0005A01A0915B01B0915C012FBF805D9740FC
:100CD000A109B1098093030290930402A093050235
:100CE000B093060287E380930C0261E08DE00E94DE
:100CF0001001C0E0D0E060ED77E080E090E00E947D
:100D000066010E949801882349F0809100028B308F
:100D100028F08D3050F085518230C8F1812C912C13
:100D200020ECA22E2FE7B22E1EC06091FB0170E0D6
:100D300090E080E00E94A0082DEC3CEC4CEC5DE3E0
:100D40000E9455096B017C016091FA0170E090E00E
:100D500080E00E94A0089B01AC01C701B6010E947F
:100D60008C074B015C010E949801882309F474C030
:100D7000809100028C3009F47EC0D8F48B3091F160
:100D8000C12CD12C80ECE82E8FE7F82E55C0609155
:100D9000FA017091FB0176276727762790E080E0C3
:100DA0000E949E082DEC3CEC4CEC5DE30E94550942
:100DB000D8CF8551823020F71091FC01612F70E06F
:100DC000762F662766277F778091FD01682B90E05C
:100DD00080E00E949E082DEC3CEC4CEC5DE30E9410
:100DE000550965C06091FC0170E090E080E00E94D0
:100DF0009E086B017C011091FD0117FF0AC0AC0138
:100E00009B0160E070E080E89FEB0E948B076B0124
:100E10007C011F70612F70E090E080E00E94A008CC
:100E20002DEC3CEC4CEC5DE30E945509A7019601CA
:100E30000E948C076B017C01A5019401C501B401DE
:100E40000E94C209811108C0A7019601C701B6011D
:100E50000E94C2098823A1F181E291E00E94050469
:100E6000209709F448CF0E941103882309F443CF47
:100E70000E94000040CF1091FC01612F70E090E0D3
:100E800080E00E949E086B017C016091FD016F7003
:100E900070E090E080E00E94A0082DEC3CEC4CEC6F
:100EA0005DE30E945509A70196010E948C076B0122
:100EB0007C0117FFC1CFF7FAF094F7F8F094BCCF9C
:100EC00085E391E00E94B40342E0C501B4010E94B1
:100ED000130480E491E00E94050483E491E00E9401
:100EE000B40342E0C701B6010E94130481E591E01A
:100EF0000E94050411E020E030E040EF51E4C7011A
:100F0000B6010E94500918160CF010E0612F8DE018
:100F10000E94C400A5CF5058BB27AA270E94A30750
:100F20000C9416090E94080938F00E940F0920F05D
:100F300039F49F3F19F426F40C9405090EF4E0955A
:100F4000E7FB0C94FF08E92F0E94270958F3BA1712
:100F5000620773078407950720F079F4A6F50C94CF
:100F600049090EF4E0950B2EBA2FA02D0B01B90103
:100F700090010C01CA01A0011124FF27591B99F00F
:100F8000593F50F4503E68F11A16F040A22F232F1B
:100F9000342F4427585FF3CF469537952795A7956B
:100FA000F0405395C9F77EF41F16BA0B620B730B12
:100FB000840BBAF09150A1F0FF0FBB1F661F771F83
:100FC000881FC2F70EC0BA0F621F731F841F48F438
:100FD000879577956795B795F7959E3F08F0B0CFC1
:100FE0009395880F08F09927EE0F979587950895A8
:100FF0000E94DB0808F481E008950E9411080C9417
:1010000016090E940F0958F00E94080940F029F4BF
:101010005F3F29F00C94FF0851110C944A090C947D
:1010200005090E94270968F39923B1F3552391F329
:10103000951B550BBB27AA2762177307840738F047
:101040009F5F5F4F220F331F441FAA1FA9F335D0A4
:101050000E2E3AF0E0E832D091505040E695001C58
:10106000CAF72BD0FE2F29D0660F771F881FBB1F12
:10107000261737074807AB07B0E809F0BB0B802DF0
:10108000BF01FF2793585F4F3AF09E3F510578F01C
:101090000C94FF080C944A095F3FE4F3983ED4F3A4
:1010A000869577956795B795F7959F5FC9F7880FF0
:1010B000911D9695879597F90895E1E0660F771F42
:1010C000881FBB1F621773078407BA0720F0621BD3
:1010D000730B840BBA0BEE1F88F7E09508950E94FE
:1010E0002F0988F09F5798F0B92F9927B751B0F082
:1010F000E1F0660F771F881F991F1AF0BA95C9F79C
:1011000014C0B13091F00E944909B1E008950C94E7
:101110004909672F782F8827B85F39F0B93FCCF39A
:10112000869577956795B395D9F73EF49095809518
:10113000709561957F4F8F4F9F4F0895E89409C038
:1011400097FB3EF490958095709561957F4F8F4FFA
:101150009F4F9923A9F0F92F96E9BB279395F69510
:10116000879577956795B795F111F8CFFAF4BB0F8E
:1011700011F460FF1BC06F5F7F4F8F4F9F4F16C0F2
:10118000882311F096E911C0772321F09EE8872F7C
:10119000762F05C0662371F096E8862F70E060E038
:1011A0002AF09A95660F771F881FDAF7880F9695B1
:1011B000879597F90895990F0008550FAA0BE0E855
:1011C000FEEF16161706E807F907C0F01216130609
:1011D000E407F50798F0621B730B840B950B39F449
:1011E0000A2661F0232B242B252B21F408950A26AF
:1011F00009F4A140A6958FEF811D811D089597F9EF
:101200009F6780E870E060E008959FEF80EC0895AC
:1012100000240A94161617061806090608950024D5
:101220000A9412161306140605060895092E03944F
:10123000000C11F4882352F0BB0F40F4BF2B11F4C3
:1012400060FF04C06F5F7F4F8F4F9F4F089557FD22
:101250009058440F551F59F05F3F71F04795880F24
:1012600097FB991F61F09F3F79F0879508951216BB
:1012700013061406551FF2CF4695F1DF08C0161667
:1012800017061806991FF1CF869571056105089418
:101290000895E894BB2766277727CB0197F908952F
:1012A0000E94DB0808F48FEF08950E9468090C94EF
:1012B00016090E94080938F00E940F0920F09523B2
:1012C00011F00C94FF080C94050911240C944A09A0
:1012D0000E94270970F3959FC1F3950F50E0551FA9
:1012E000629FF001729FBB27F00DB11D639FAA277B
:1012F000F00DB11DAA1F649F6627B00DA11D661FCA
:10130000829F2227B00DA11D621F739FB00DA11DEA
:10131000621F839FA00D611D221F749F3327A00DA4
:10132000611D231F849F600D211D822F762F6A2F40
:1013300011249F5750409AF0F1F088234AF0EE0FA5
:10134000FF1FBB1F661F771F881F91505040A9F7D2
:101350009E3F510580F00C94FF080C944A095F3FB2
:10136000E4F3983ED4F3869577956795B795F7950E
:10137000E7959F5FC1F7FE2B880F911D9695879586
:1013800097F908950E94DB08880B990B0895A1E254
:101390001A2EAA1BBB1BFD010DC0AA1FBB1FEE1FEF
:1013A000FF1FA217B307E407F50720F0A21BB30B3A
:1013B000E40BF50B661F771F881F991F1A9469F7B6
:1013C00060957095809590959B01AC01BD01CF0112
:1013D0000895EE0FFF1F0590F491E02D0994F89405
:0213E000FFCF3D
:1013E200000000004703A702D40294030503E302AE
:1013F200F7020D0A006E616E00696E66006F766616
:101402000053656E736F7220726561642066616954
:101412006C6564210048756D69646974793A2000CD
:1014220020250054656D70657261747572653A208D
:041432000020430053
:00000001FF
