:100000000C945D000C9485000C9485000C94850084
:100010000C9485000C9485000C9485000C9485004C
:100020000C9485000C9485000C9485000C9485003C
:100030000C9485000C9485000C9485000C9485002C
:100040000C942A020C9485000C949A020C9474026D
:100050000C9485000C9485000C9485000C9485000C
:100060000C9485000C94850000000008000201003B
:100070000003040700000000000000000000000072
:10008000250028002B0000000000240027002A0083
:10009000040404040404040402020202020203032E
:1000A0000303030301020408102040800102040836
:1000B00010200102040810203C0411241FBECFEFC1
:1000C000D8E0DEBFCDBF11E0A0E0B1E0E6E2F9E0AC
:1000D00002C005900D92AA31B107D9F721E0AAE13B
:1000E000B1E001C01D92A03CB207E1F710E0CDE500
:1000F000D0E004C02197FE010E948B04CC35D107CB
:10010000C9F70E94CC020C9491040C940000EDEA13
:10011000F0E02491E9E9F0E08491882399F090E0FF
:10012000880F991FFC01EA57FF4FA591B491FC017C
:10013000E458FF4F859194918FB7F894EC91E22B9E
:10014000EC938FBF0895E1E7F0E02491EDEAF0E051
:100150009491E9E9F0E0E491EE23C9F0222339F02B
:10016000233001F1A8F4213019F1223029F1F0E017
:10017000EE0FFF1FE458FF4FA591B4912FB7F894ED
:10018000EC91811126C090959E239C932FBF0895DA
:100190002730A9F02830C9F0243049F72091800099
:1001A0002F7D03C0209180002F7720938000DFCF28
:1001B00024B52F7724BDDBCF24B52F7DFBCF209135
:1001C000B0002F772093B000D2CF2091B0002F7DC8
:1001D000F9CF9E2BDACF3FB7F89480911F01909111
:1001E0002001A0912101B091220126B5A89B05C054
:1001F0002F3F19F00196A11DB11D3FBFBA2FA92FA6
:10020000982F8827BC01CD01620F711D811D911DA2
:1002100042E0660F771F881F991F4A95D1F708950E
:10022000AF92BF92CF92DF92EF92FF920F931F9304
:10023000CF93DF936C017B018B01040F151FEB0142
:100240005E01AE18BF08C017D10759F06991D601F9
:10025000ED91FC910190F081E02DC6010995892B6B
:1002600079F7C501DF91CF911F910F91FF90EF902A
:10027000DF90CF90BF90AF900895FC01538D448DD7
:10028000252F30E0842F90E0821B930B541710F041
:10029000CF96089501970895FC01918D828D98174E
:1002A00061F0A28DAE0FBF2FB11D5D968C91928D26
:1002B0009F5F9F73928F90E008958FEF9FEF089557
:1002C000FC01918D828D981731F0828DE80FF11D20
:1002D000858D90E008958FEF9FEF0895FC01918D3B
:1002E000228D892F90E0805C9F4F821B91098F7334
:1002F0009927089583E291E00E946E0121E0892B05
:1003000009F420E0822F089580E090E0892B29F005
:100310000E947A0181110C9400000895FC01A48DC3
:10032000A80FB92FB11DA35ABF4F2C91848D90E017
:1003300001968F739927848FA689B7892C93A089FA
:10034000B1898C91837080648C93938D848D981384
:1003500006C00288F389E02D80818F7D8083089517
:10036000EF92FF920F931F93CF93DF93EC0181E005
:10037000888F9B8D8C8D98131AC0E889F9898081AC
:1003800085FF15C09FB7F894EE89FF896083E889DF
:10039000F98980818370806480839FBF81E090E0D1
:1003A000DF91CF911F910F91FF90EF900895F62E5E
:1003B0000B8D10E00F5F1F4F0F731127E02E8C8DF8
:1003C0008E110CC00FB607FCFACFE889F98980813D
:1003D00085FFF5CFCE010E948E01F1CFEB8DEC0FA2
:1003E000FD2FF11DE35AFF4FF0829FB7F8940B8F5A
:1003F000EA89FB8980818062CFCFCF93DF93EC01C4
:10040000888D8823B9F0AA89BB89E889F9898C91FC
:1004100085FD03C0808186FD0DC00FB607FCF7CFB8
:100420008C9185FFF2CF808185FFEDCFCE010E94B8
:100430008E01E9CFDF91CF910895FC01019000205A
:10044000E9F73197AF01481B590BBC0183E291E0FA
:100450000C9410011F920F920FB60F9211242F933C
:100460003F938F939F93AF93BF9380911B01909184
:100470001C01A0911D01B0911E0130911A0123E0D1
:10048000230F2D3758F50196A11DB11D20931A0198
:1004900080931B0190931C01A0931D01B0931E013A
:1004A00080911F0190912001A0912101B091220122
:1004B0000196A11DB11D80931F0190932001A0936F
:1004C0002101B0932201BF91AF919F918F913F91F4
:1004D0002F910F900FBE0F901F90189526E8230FB5
:1004E0000296A11DB11DD2CF1F920F920FB60F928F
:1004F00011242F933F934F935F936F937F938F9329
:100500009F93AF93BF93EF93FF9383E291E00E9499
:100510008E01FF91EF91BF91AF919F918F917F914C
:100520006F915F914F913F912F910F900FBE0F9060
:100530001F9018951F920F920FB60F9211242F93B0
:100540008F939F93EF93FF93E0913301F0913401E8
:100550008081E0913901F0913A0182FD1BC09081C8
:1005600080913C018F5F8F7320913D01821741F094
:10057000E0913C01F0E0ED5DFE4F958F80933C01F2
:10058000FF91EF919F918F912F910F900FBE0F9040
:100590001F9018958081F4CFCF93DF93CDB7DEB74E
:1005A000A1970FB6F894DEBF0FBECDBF789484B587
:1005B000826084BD84B5816084BD85B5826085BD5F
:1005C00085B5816085BD80916E00816080936E00ED
:1005D00010928100809181008260809381008091DF
:1005E0008100816080938100809180008160809390
:1005F00080008091B10084608093B1008091B00050
:1006000081608093B00080917A00846080937A004A
:1006100080917A00826080937A0080917A00816074
:1006200080937A0080917A00806880937A0010929B
:10063000C100E0913301F091340182E08083E091C8
:100640002F01F09130011082E0913101F0913201DF
:100650008FEC808310923B01E0913701F0913801DB
:1006600086E08083E0913501F091360180818061E0
:100670008083E0913501F09136018081886080832C
:10068000E0913501F0913601808180688083E091AE
:100690003501F091360180818F7D80830E94870033
:1006A0002AE0822E912CA12CB12C31E7232E30E0B0
:1006B000332E20E420937C0080917A008064809324
:1006C0007A0080917A0086FDFCCF0091780010912D
:1006D000790082E191E00E941D022801012E000CA8
:1006E0006608770877FE6CC06DE283E291E00E94B5
:1006F000B00122273327A9012419350946095709D2
:1007000019A2CE0181967C01CA01B901A50194010B
:100710000E946904605DF70162937F012115310534
:100720004105510589F7E114F10419F0C7010E9450
:100730001D0286E191E00E941D0217FF02C00D5FBD
:100740001F4F15950795159507950E948700011570
:10075000110509F04BC080E00E94A3000E94EB004D
:100760006B017C0184EF482E55245394612C712C2D
:100770000E94EB006C197D098E099F09683E734049
:1007800081059105A8F3F1E04F1A5108610871083D
:1007900028EEC20E23E0D21EE11CF11C41145104CC
:1007A0006104710429F780E090E0892B09F481CF7E
:1007B0000E947A01882309F47CCF0E94000079CF3F
:1007C000A301920119A2CE0181967C01CA01B9014F
:1007D000A50194010E946904605DF70162937F01A5
:1007E000211531054105510589F79DCF0F3F1105B1
:1007F00011F481E0B1CFF1018491833019F140F41B
:100800008130B1F08230C9F00038110594F7A3CFE0
:10081000873011F1883041F18430B1F78091800048
:1008200080628093800010938B0000938A0096CFA3
:1008300084B5806884BD07BD91CF84B5806284BDD6
:1008400008BD8CCF809180008068809380001093D9
:1008500089000093880082CF8091B00080688093E7
:10086000B0000093B3007ACF8091B0008062809393
:10087000B0000093B40072CFE3E2F1E01382128281
:1008800088EE93E0A0E0B0E084839583A683B783ED
:1008900084E091E09183808385EC90E09587848764
:1008A00084EC90E09787868780EC90E0918B808B3A
:1008B00081EC90E0938B828B82EC90E0958B848B23
:1008C00086EC90E0978B868B118E128E138E148E91
:1008D0000895A1E21A2EAA1BBB1BFD010DC0AA1F81
:1008E000BB1FEE1FFF1FA217B307E407F50720F099
:1008F000A21BB30BE40BF50B661F771F881F991F14
:100900001A9469F760957095809590959B01AC015C
:10091000BD01CF010895EE0FFF1F0590F491E02D6A
:060920000994F894FFCFDA
:1009260000000000B00110013D01FD016E014C0107
:0A093600600141303D000D0A000091
:00000001FF
