:100000000C942D010C945E010C945E010C945E0125
:100010000C945E010C945E010C945E010C945E01E4
:100020000C945E010C945E010C945E010C945E01D4
:100030000C945E010C94B6070C945E010C945E0166
:100040000C945E010C945E010C945E010C945E01B4
:100050000C945E010C945E010C945E010C945C02A5
:100060000C945E010C94CD050C9403060C945E0177
:100070000C945E010C945E010C945E010C945E0184
:100080000C945E010C945E010C945E010C945E0174
:100090000C945E010C945E010C945E010C945E0164
:1000A0000C945E010C945E010C945E010C945E0154
:1000B0000C945E010C945E010C945E010C945E0144
:1000C0000C945E010C945E010C945E010C945E0134
:1000D0000C945E010C945E010C945E010C945E0124
:1000E0000C945E010C94BC030C9476040C94C6032F
:1000F0000C9464060C9484040C9498040C94AD0342
:100100000C946A040C94DE030C94FE040C94A70473
:100110000C94E7030C94D4030C94D0030C94DA03EE
:100120000C942D060C94B5030C9437060C94B10373
:100130000C94E2030C94CC030C94EC030C94E803B1
:100140000C941E050C94C2030C94B9030C94A703E1
:1001500000000A0B02090C0D0E0807030401000041
:10016000000000000000000000000000000000008F
:10017000000000000000000000000000121110004C
:10018000000000000000000000000000000000006F
:10019000000000000000010210202008081020408C
:1001A000102040800201020108040201010204083B
:1001B00010204080804020100804020180040201C9
:1001C0008040201008040201080402010102040812
:1001D000102040800102040810204080050505051C
:1001E000070508080808020202020A0A08080404AF
:1001F00004040101010101010101030303030303DD
:100200000303040707070C0C0C0C0C0C0C0C02026B
:10021000020206060606060606060B0B0B0B0B0B68
:100220000B0B00002200250028002B002E003100BF
:10023000340002010000050108010B01000021004B
:10024000240027002A002D003000330001010000A7
:10025000040107010A010200370611241FBECFEF77
:10026000D1E2DEBFCDBF00E00CBF12E0A0E0B2E003
:10027000EAE8F0E100E00BBF02C007900D92AA345B
:10028000B107D9F722E0AAE4B2E001C01D92A73F6E
:10029000B207E1F711E0CDE2D1E000E006C021971E
:1002A0000109802FFE010E943B08CC32D10780E07B
:1002B0000807A9F70E945B040C9416080C94000030
:1002C000EF92FF920F931F93CF93DF93C8E1D2E099
:1002D00080E1E82E82E0F82E08E012E08881229684
:1002E00061E00E942C04F7018081F2E0EF0EF11C26
:1002F00060E00E942C04F80180810E5F1F4F60E0D7
:100300000E942C04F2E0C032DF0741F7DF91CF9169
:100310001F910F91FF90EF900895CF93DF93EC0121
:100320000E946001CC0FDD1FFE01E85EFD4F60E022
:1003300080810E942C04C85FDD4F61E08881DF91DD
:10034000CF910C942C04EF92FF920F931F93CF93B5
:10035000DF93C8E1D2E080E1E82E82E0F82E08E0E9
:1003600012E08881229661E00E94F003F70180810B
:10037000F2E0EF0EF11C61E00E94F003F8018081D1
:100380000E5F1F4F61E00E94F003F2E0C032DF0712
:1003900041F70E94600126E040E855E260E070E02D
:1003A00083E592E0DF91CF911F910F91FF90EF9045
:1003B0000C946B057F928F929F92AF92BF92CF92D7
:1003C000DF92EF92FF920F931F93CF93DF9380E022
:1003D000A82E82E0B82E98E0C92E92E0D92E20E116
:1003E000E22E22E0F22E10E000E037E0732EF5015D
:1003F0008081F2E0AF0EB11C0E946603789EE0019E
:10040000799ED00D1124C854D44F62E272E083E586
:1004100092E00E94A00648018FEF881A980A4AE0ED
:1004200050E0B40183E592E00E94600768E272E068
:1004300083E592E00E94A0064AE050E0BE0183E519
:1004400092E00E94600761E372E083E592E00E941F
:10045000B306C8010E948D01BE01DD0F880B990B08
:100460000E94CB02F6018081F2E0CF0ED11C60E049
:100470000E942C04F7018081F2E0EF0EF11C61E094
:100480000E942C0460ED77E080E090E00E94CB02B7
:1004900084010430110509F0AACFDF91CF911F919B
:1004A0000F91FF90EF90DF90CF90BF90AF909F9013
:1004B0008F907F90089508951F920F920FB60F921C
:1004C00011242F933F938F939F93AF93BF9380916A
:1004D0004B0290914C02A0914D02B0914E0230918E
:1004E0004A0223E0230F2D3758F50196A11DB11DB7
:1004F00020934A0280934B0290934C02A0934D02AA
:10050000B0934E0280914F0290915002A0915102FF
:10051000B09152020196A11DB11D80934F0290939C
:100520005002A0935102B0935202BF91AF919F919C
:100530008F913F912F910F900FBE0F901F901895A4
:1005400026E8230F0296A11DB11DD2CF3FB7F89424
:1005500080914F0290915002A0915102B0915202AD
:1005600026B5A89B05C02F3F19F00196A11DB11D0E
:100570003FBFBA2FA92F982F8827BC01CD01620F4A
:10058000711D811D911D42E0660F771F881F991F05
:100590004A95D1F708958F929F92AF92BF92CF92D2
:1005A000DF92EF92FF926B017C010E94A6024B0149
:1005B0005C01C114D104E104F104E9F00E945B0282
:1005C0000E94A602681979098A099B09683E73404E
:1005D0008105910570F381E0C81AD108E108F1089E
:1005E00028EE820E23E0921EA11CB11CC114D1047E
:1005F000E104F10429F7FF90EF90DF90CF90BF90D6
:10060000AF909F908F900895789484B5826084BD58
:1006100084B5816084BD85B5826085BD85B5816006
:1006200085BDEEE6F0E0808181608083E1E8F0E066
:100630001082808182608083808181608083E0E895
:10064000F0E0808181608083E1EBF0E08081846074
:100650008083E0EBF0E0808181608083E1E9F0E07D
:10066000808182608083808181608083E0E9F0E026
:10067000808181608083E1EAF0E080818260808314
:10068000808181608083E0EAF0E080818160808306
:10069000E1E2F1E0808182608083808181608083FB
:1006A000E0E2F1E0808181608083EAE7F0E0808130
:1006B0008460808380818260808380818160808388
:1006C0008081806880831092C1000895863308F08D
:1006D000865390917B00977F282F2870922B9093C0
:1006E0007B002091200290E4299F900111248770C3
:1006F000822B80937C0080917A00806480937A00C2
:1007000080917A0086FDFCCF8091780090917900ED
:1007100008958150823108F05AC0E82FF0E0882710
:10072000EB56FC4F8F4F0C943B08B503B903A7035E
:10073000AD03B103E703BC03C203C603CC03D0037C
:10074000D403DA03DE03E703E203E803EC0380915A
:1007500080008F77809380000895809180008F7D46
:10076000F9CF80918000877FF5CF84B58F7784BDE6
:10077000089584B58F7DFBCF8091B0008F778093F3
:10078000B00008958091B0008F7DF9CF80919000E6
:100790008F77809390000895809190008F7DF9CF9E
:1007A00080919000877FF5CF8091A0008F77809314
:1007B000A00008958091A0008F7DF9CF8091A000C6
:1007C000877FF5CF809120018F7780932001089556
:1007D000809120018F7DF9CF80912001877FF5CF17
:1007E000CF93DF9390E0FC01EA56FE4F24918452B0
:1007F0009E4FFC0184918823C9F090E0880F991FD7
:10080000FC01E45CFD4FA591B491FC01EE5DFD4F50
:10081000C591D49161110DC09FB7F8948C9120952A
:1008200082238C938881282328839FBFDF91CF91D7
:100830000895623051F49FB7F8943C91822F8095CF
:1008400083238C93E8812E2BEFCF8FB7F894EC9114
:100850002E2B2C938FBFEACF1F93CF93DF93162FAE
:10086000282F30E0F901E05BFE4F8491F901EA5650
:10087000FE4FD491F901E452FE4FC491CC23A1F074
:1008800081110E948903EC2FF0E0EE0FFF1FEE5D57
:10089000FD4FA591B4918FB7F894EC91111108C058
:1008A000D095DE23DC938FBFDF91CF911F91089508
:1008B000DE2BF8CF08950E9404030E945A040E9480
:1008C000A301C7EAD4E00E94DA012097E1F30E9475
:1008D000A704F9CFFC01918D228D892F90E0805CD7
:1008E0009F4F821B91098F7399270895FC01918D69
:1008F000828D981731F0828DE80FF11D858D90E083
:1009000008958FEF9FEF0895FC01918D828D9817C8
:1009100061F0A28DAE0FBF2FB11D5D968C91928DAF
:100920009F5F9F73928F90E008958FEF9FEF0895E0
:10093000FC01538D448D252F30E0842F90E0821BE5
:10094000930B541710F0CF960895019708958DE2F8
:1009500096E0892B49F080E090E0892B29F00E94F5
:100960002D0681110E94000080E090E0892B49F063
:1009700080E090E0892B29F00E94000081110E9404
:10098000000080E090E0892B49F080E090E0892B26
:1009900029F00E94000081110E94000080E090E098
:1009A000892B49F080E090E0892B29F00E9400001B
:1009B00081110C9400000895FC01A48DA80FB92F9B
:1009C000B11DA35ABF4F2C91848D90E001968F7377
:1009D0009927848FA689B7892C93A089B1898C9196
:1009E000837080648C93938D848D981306C00288E5
:1009F000F389E02D80818F7D80830895CF93DF93ED
:100A0000EC01888D8823B9F0AA89BB89E889F98926
:100A10008C9185FD03C0808186FD0DC00FB607FC5B
:100A2000F7CF8C9185FFF2CF808185FFEDCFCE018E
:100A30000E94DC04E9CFDF91CF910895EF92FF92FD
:100A40000F931F93CF93DF93EC01F62E81E0888FF5
:100A50009B8D8C8D98131AC0E889F989808185FF58
:100A600015C09FB7F894EE89FF896083E889F989FA
:100A700080818370806480839FBF81E090E0DF91FC
:100A8000CF911F910F91FF90EF9008950B8D10E083
:100A90000F5F1F4F0F731127E02E8C8D8E110CC02E
:100AA0000FB607FCFACFE889F989808185FFF5CF79
:100AB000CE010E94DC04F1CFEB8DEC0FFD2FF11D78
:100AC000E35AFF4FF0829FB7F8940B8FEA89FB89B6
:100AD00080818062D0CFCF92DF92EF92FF921F93FE
:100AE000CF93DF93EC016A017B01122FE889F9892A
:100AF00082E08083C11481EED806E104F104A1F004
:100B000060E079E08DE390E0A70196010E9419086A
:100B10002150310941095109569547953795279537
:100B2000211580E1380798F0E889F989108260E89A
:100B300074E88EE190E0A70196010E941908215007
:100B40003109410951095695479537952795EC8507
:100B5000FD853083EE85FF852083188EEC89FD8925
:100B60001083EA89FB89808180618083EA89FB891F
:100B7000808188608083EA89FB89808180688083A6
:100B8000EA89FB8980818F7D8083DF91CF911F91DE
:100B9000FF90EF90DF90CF9008951F920F920FB6C5
:100BA0000F9211240BB60F922F938F939F93EF9375
:100BB000FF93E0916302F09164028081E091690209
:100BC000F0916A0282FD1DC0908180916C028F5F5E
:100BD0008F7320916D02821741F0E0916C02F0E07A
:100BE000ED5AFD4F958F80936C02FF91EF919F918D
:100BF0008F912F910F900BBE0F900FBE0F901F90F3
:100C000018958081F2CF1F920F920FB60F92112488
:100C10000BB60F922F933F934F935F936F937F93F6
:100C20008F939F93AF93BF93EF93FF9383E592E0EE
:100C30000E94DC04FF91EF91BF91AF919F918F9142
:100C40007F916F915F914F913F912F910F900BBECC
:100C50000F900FBE0F901F90189583E592E00E94B1
:100C60006A0421E0892B09F420E0822F0895E3E54E
:100C7000F2E01382128288EE93E0A0E0B0E0848379
:100C80009583A683B7838BE392E09183808385EC81
:100C900090E09587848784EC90E09787868780EC46
:100CA00090E0918B808B81EC90E0938B828B82EC37
:100CB00090E0958B848B86EC90E0978B868B118EE1
:100CC000128E138E148E0895AF92BF92CF92DF9240
:100CD000EF92FF920F931F93CF93DF936C017B01F1
:100CE0008B01040F151FEB015E01AE18BF08C01782
:100CF000D10759F06991D601ED91FC910190F081F5
:100D0000E02DC6011995892B79F7C501DF91CF91A7
:100D10001F910F91FF90EF90DF90CF90BF90AF9019
:100D20000895FB0101900020E9F73197AF01461BC0
:100D3000570BDC01ED91FC910280F381E02D1994B9
:100D40006115710511F00C94910690E080E0089512
:100D5000DC01ED91FC910190F081E02D199464E3A8
:100D600072E00C9491060F931F93CF93DF938C0145
:100D7000D0E0C0E06115710519F00E949106EC0108
:100D8000C8010E94AF068C0F9D1FDF91CF911F916C
:100D90000F9108958F929F92AF92BF92EF92FF9220
:100DA0000F931F93CF93DF93CDB7DEB7A1970FB605
:100DB000F894DEBF0FBECDBF7C01FA01CB0119A2B2
:100DC000223008F42AE08E010F5D1F4F822E912CF5
:100DD000B12CA12CBF01A50194010E941908F901B1
:100DE000CA016A300CF5605DD8016E938D01232B2A
:100DF000242B252B79F790E080E0109721F0BD019E
:100E0000C7010E949106A1960FB6F894DEBF0FBEEF
:100E1000CDBFDF91CF911F910F91FF90EF90BF90C9
:100E2000AF909F908F900895695CDECFCF92DF9254
:100E3000EF92FF920F931F93CF93DF93EC016A0120
:100E40007B012115310579F4E881F9810190F08168
:100E5000E02D642FDF91CF911F910F91FF90EF90C4
:100E6000DF90CF9019942A303105E9F42AE0F7FE9B
:100E70001AC06DE20E94A8068C0144275527BA01CA
:100E80004C195D096E097F092AE0CE010E94CA064D
:100E9000800F911FDF91CF911F910F91FF90EF90E5
:100EA000DF90CF900895B701A601CE01DF91CF91D9
:100EB0001F910F91FF90EF90DF90CF900C94CA0696
:100EC0009A01AB01770F660B770B0C9416078230F3
:100ED000A9F028F4882349F0813051F00895843036
:100EE00021F1E8F0853039F1089510926E000895EF
:100EF00080916F008D7F80936F00089580917000C6
:100F00008D7F8093700081E08093B0008091B1006C
:100F1000887F84608093B1001092B300089580911F
:100F200071008D7F809371000895809172008D7F94
:100F3000809372000895809173008D7F8093730079
:100F40000895CF93C82F80912102C8130DC0E6E504
:100F5000F2E084919FEF909321020E94670760E086
:100F60008C2FCF910C942C048FEFF7CF1F920F9200
:100F70000FB60F9211240BB60F922F933F934F93FE
:100F80005F936F937F938F939F93AF93BF93EF93F1
:100F9000FF938091F3029091F402A091F502B09139
:100FA000F602892B8A2B8B2BE1F19091F002E091D4
:100FB000F102F091F2028081892780838091F3020F
:100FC0009091F402A091F502B091F602181619065C
:100FD0001A061B069CF48091F3029091F402A091F2
:100FE000F502B091F6020197A109B1098093F302CD
:100FF0009093F402A093F502B093F602FF91EF9163
:10100000BF91AF919F918F917F916F915F914F9120
:101010003F912F910F900BBE0F900FBE0F901F901E
:101020001895809121020E94A107E8CFF8940C94B2
:101030004308A1E21A2EAA1BBB1BFD010DC0AA1F6B
:10104000BB1FEE1FFF1FA217B307E407F50720F031
:10105000A21BB30BE40BF50B661F771F881F991FAC
:101060001A9469F760957095809590959B01AC01F5
:10107000BD01CF010895EE0FFF1F881F8BBF0790A2
:0A108000F691E02D1994F894FFCFCB
:10108A00360037003800390018001B001E00210006
:10109A0017001A001D002000160019001C001F006E
:1010AA0001FF4C616E65200020477265656E3A202B
:1010BA00006D73000D0A00000000001E056406980A
:0A10CA0004FE046A048404760400A6
:00000001FF
