:100000000C9466000C948E000C948E000C948E0060
:100010000C948E000C948E000C948E000C94A8040A
:100020000C948E000C948E000C948E000C94E40BB7
:100030000C948E000C948E000C948E000C948E0008
:100040000C9415050C948E000C9436020C946802E6
:100050000C948E000C948E000C948E000C948E00E8
:100060000C94DC0D0C948E000200000008000201CC
:10007000000003040700000000000000000102046B
:10008000081020408001020408102001020408101A
:100090002004040404040404040202020202020311
:1000A00003030303030000000023002600290000CF
:1000B000000000250028002B00000000002400277D
:1000C000002A0000F30098020E0A250D11241FBE1D
:1000D000CFEFD8E0DEBFCDBF11E0A0E0B1E0EAECA9
:1000E000F2E202C005900D92A235B107D9F723E0E4
:1000F000A2E5B1E001C01D92AF3CB207E1F710E00C
:10010000C6E6D0E004C02197FE010E945D11C23610
:10011000D107C9F70E9406050C9438110C94000011
:1001200026E040E855E260E070E085E691E00E945C
:10013000D40167E382E591E00E94EC0661E08DE086
:100140000C9438068F929F92AF92BF92CF92DF921B
:10015000EF92FF9260E082E591E00E94CE084B01B1
:100160005C0140E060E082E591E00E943E086B01A6
:100170007C0161E071E085E691E00E94040322E0E9
:1001800030E0B501A40185E691E00E9471046CE0C5
:1001900071E085E691E00E94040322E030E0B701BF
:1001A000A60185E691E00E9471046DE171E085E6AB
:1001B00091E00E9417038DE00E94A20661E0892B66
:1001C00009F060E08DE00E94740660ED77E080E069
:1001D00090E0FF90EF90DF90CF90BF90AF909F9016
:1001E0008F900C94900526E04BE062E082E591E070
:1001F0000C94CB06FC01918D228D892F90E0805CC0
:100200009F4F821B91098F7399270895FC01918D4F
:10021000828D981731F0828DE80FF11D858D90E069
:1002200008958FEF9FEF0895FC01918D828D9817AF
:1002300061F0A28DAE0FBF2FB11D5D968C91928D96
:100240009F5F9F73928F90E008958FEF9FEF0895C7
:10025000FC01538D448D252F30E0842F90E0821BCC
:10026000930B541710F0CF960895019708958EE8D8
:1002700092E0892B49F080E090E0892B29F00E94E0
:100280008E0281110C9400000895FC01A48DA80F2A
:10029000B92FB11DA35ABF4F2C91848D90E00196C8
:1002A0008F739927848FA689B7892C93A089B189E8
:1002B0008C91837080648C93938D848D981306C089
:1002C0000288F389E02D80818F7D80830895CF930C
:1002D000DF93EC01888D8823B9F0AA89BB89E8896E
:1002E000F9898C9185FD03C0808186FD0DC00FB614
:1002F00007FCF7CF8C9185FFF2CF808185FFEDCF92
:10030000CE010E944501E9CFDF91CF910895EF9290
:10031000FF920F931F93CF93DF93EC0181E0888FBF
:100320009B8D8C8D98131AC0E889F989808185FF8F
:1003300015C09FB7F894EE89FF896083E889F98931
:1003400080818370806480839FBF81E090E0DF9133
:10035000CF911F910F91FF90EF900895F62E0B8D86
:1003600010E00F5F1F4F0F731127E02E8C8D8E1141
:100370000CC00FB607FCFACFE889F989808185FFA8
:10038000F5CFCE010E944501F1CFEB8DEC0FFD2F93
:10039000F11DE35AFF4FF0829FB7F8940B8FEA8963
:1003A000FB8980818062CFCFCF92DF92EF92FF9264
:1003B0001F93CF93DF93EC016A017B01122FE88931
:1003C000F98982E08083C11481EED806E104F1044A
:1003D000A1F060E079E08DE390E0A70196010E9432
:1003E0003B112150310941095109569547953795DF
:1003F0002795211580E1380798F0E889F98910825E
:1004000060E874E88EE190E0A70196010E943B113C
:10041000215031094109510956954795379527953E
:10042000EC85FD853083EE85FF852083188EEC8971
:10043000FD891083EA89FB89808180618083EA8954
:10044000FB89808188608083EA89FB89808180685C
:100450008083EA89FB8980818F7D8083DF91CF91C2
:100460001F91FF90EF90DF90CF9008951F920F9211
:100470000FB60F9211242F938F939F93EF93FF93B7
:10048000E0917501F09176018081E0917B01F0911E
:100490007C0182FD1BC0908180917E018F5F8F73F4
:1004A00020917F01821741F0E0917E01F0E0EB594D
:1004B000FE4F958F80937E01FF91EF919F918F91D9
:1004C0002F910F900FBE0F901F9018958081F4CF41
:1004D0001F920F920FB60F9211242F933F934F93B9
:1004E0005F936F937F938F939F93AF93BF93EF939C
:1004F000FF9385E691E00E944501FF91EF91BF9146
:10050000AF919F918F917F916F915F914F913F91AB
:100510002F910F900FBE0F901F90189585E691E0D8
:100520000E94FA0021E0892B09F420E0822F08952F
:10053000E5E6F1E01382128288EE93E0A0E0B0E0FD
:1005400084839583A683B78382E391E0918380833C
:1005500085EC90E09587848784EC90E09787868788
:1005600080EC90E0918B808B81EC90E0938B828B80
:1005700082EC90E0958B848B86EC90E0978B868B59
:10058000118E128E138E148E089590E080E00895DF
:10059000AF92BF92CF92DF92EF92FF920F931F9391
:1005A000CF93DF936C017B018B01040F151FEB01CF
:1005B0005E01AE18BF08C017D10759F06991D60186
:1005C000ED91FC910190F081E02DC6010995892BF8
:1005D00079F7C501DF91CF911F910F91FF90EF90B7
:1005E000DF90CF90BF90AF900895FB010190002065
:1005F000E9F73197AF01461B570BDC01ED91FC91F8
:100600000280F381E02D09946115710511F00C94BD
:10061000F50290E080E00895DC01ED91FC910190FD
:10062000F081E02D09946FE171E00C94F5020F93D5
:100630001F93CF93DF938C01D0E0C0E0611571056B
:1006400019F00E94F502EC01C8010E9413038C0FFF
:100650009D1FDF91CF911F910F9108958F929F92CF
:10066000AF92BF92EF92FF920F931F93CF93DF93BE
:10067000CDB7DEB7A1970FB6F894DEBF0FBECDBFE2
:100680007C01FA01CB0119A2223008F42AE08E0184
:100690000F5D1F4F822E912CB12CA12CBF01A50103
:1006A00094010E943B11F901CA016A300CF5605DAA
:1006B000D8016E938D01232B242B252B79F790E005
:1006C00080E0109721F0BD01C7010E94F502A196BC
:1006D0000FB6F894DEBF0FBECDBFDF91CF911F9153
:1006E0000F91FF90EF90BF90AF909F908F900895E3
:1006F000695CDECF2115310541F4DC01ED91FC91FF
:100700000190F081E02D642F09940C942E039A013E
:10071000AB0170E060E00C947A032F923F924F920D
:100720005F926F927F928F929F92AF92BF92CF9281
:10073000DF92EF92FF921F93CF93DF93EC016A0158
:100740007B01722EAB019601CB01B6010E943311E1
:1007500062E271E0811126C046015701E894B7F8C2
:100760002FEF3FEF4FE75FE7C501B4010E94331160
:1007700081110CC02FEF3FEF4FE75FE7C501B401D8
:100780000E94690F66E271E0181664F02FEF3FEFE8
:100790004FE75FE4C701B6010E94C1101816B4F418
:1007A0006AE271E0CE01DF91CF911F91FF90EF904F
:1007B000DF90CF90BF90AF909F908F907F906F9081
:1007C0005F904F903F902F900C94F5022FEF3FEFEA
:1007D0004FE75FECC701B6010E94690F87FDE0CFCC
:1007E00020E030E0A901C701B6010E94690F312C59
:1007F000212C87FF09C06DE2CE010E940C031C0171
:10080000F7FAF094F7F8F09410E060E070E080E020
:100810009FE3711641F020E030E040E251E40E9495
:100820006E0F1F5FF6CFA70196010E94FD0E2B01F0
:100830003C010E94E00F4B015C012AE0BC01A401D5
:10084000CE010E942E037C01E20CF31C1123B1F1B6
:10085000C501B4010E940F109B01AC01C301B2019C
:100860000E94FC0E4B015C016EE2CE010E940C0363
:10087000E80EF91E115010F120E030E040E251E4A2
:10088000C501B4010E94C6102B013C010E94E00F7B
:100890004B014AE050E0CE010E948703E80EF91EAA
:1008A000B40190E080E00E940F109B01AC01C301F5
:1008B000B2010E94FC0E4B015C01DCCFC701DF914D
:1008C000CF911F91FF90EF90DF90CF90BF90AF90AE
:1008D0009F908F907F906F905F904F903F902F9060
:1008E00008950C948D03813039F018F0823051F066
:1008F000089510926E00089580916F008D7F80930F
:100900006F000895809170008D7F8093700081E06A
:100910008093B0008091B100887F84608093B100A3
:100920001092B3000895CF93C82F80910001C8138F
:100930000DC0E8E6F0E084919FEF909300010E94E3
:10094000730460E08C2FCF910C9474068FEFF7CF77
:100950001F920F920FB60F9211242F933F934F9334
:100960005F936F937F938F939F93AF93BF93EF9317
:10097000FF938091050290910602A0910702B09129
:100980000802892B8A2B8B2BD1F190910202E091E6
:100990000302F091040280818927808380910502FF
:1009A00090910602A0910702B0910802181619064C
:1009B0001A061B069CF48091050290910602A091F4
:1009C0000702B09108020197A109B10980930502BD
:1009D00090930602A0930702B0930802FF91EF9153
:1009E000BF91AF919F918F917F916F915F914F9147
:1009F0003F912F910F900FBE0F901F9018958091EF
:100A000000010E949304EACF089508950E94D4053E
:100A10000E9405050E949000C7E3D1E00E94A20059
:100A20002097E1F30E943701F9CF1F920F920FB682
:100A30000F9211242F933F938F939F93AF93BF9364
:100A400080910A0290910B02A0910C02B0910D02CC
:100A50003091090223E0230F2D3758F50196A11D8F
:100A6000B11D2093090280930A0290930B02A09378
:100A70000C02B0930D0280910E0290910F02A09192
:100A80001002B09111020196A11DB11D80930E02BA
:100A900090930F02A0931002B0931102BF91AF91F7
:100AA0009F918F913F912F910F900FBE0F901F90AC
:100AB000189526E8230F0296A11DB11DD2CF2FB79E
:100AC000F89460910A0270910B0280910C0290914F
:100AD0000D022FBF08953FB7F89480910E029091B8
:100AE0000F02A0911002B091110226B5A89B05C07B
:100AF0002F3F19F00196A11DB11D3FBFBA2FA92F9D
:100B0000982F8827BC01CD01620F711D811D911D99
:100B100042E0660F771F881F991F4A95D1F7089505
:100B20008F929F92AF92BF92CF92DF92EF92FF92FD
:100B30006B017C010E946B054B015C01C114D10467
:100B4000E104F104E9F00E9404050E946B056819B4
:100B500079098A099B09683E73408105910570F304
:100B600021E0C21AD108E108F10888EE880E83E07E
:100B7000981EA11CB11CC114D104E104F10429F791
:100B8000FF90EF90DF90CF90BF90AF909F908F90AD
:100B900008958230910538F0880F991F880F991FAA
:100BA00005970197F1F70895789484B5826084BD24
:100BB00084B5816084BD85B5826085BD85B5816061
:100BC00085BDEEE6F0E0808181608083E1E8F0E0C1
:100BD0001082808182608083808181608083E0E8F0
:100BE000F0E0808181608083E1EBF0E080818460CF
:100BF0008083E0EBF0E0808181608083EAE7F0E0D1
:100C00008081846080838081826080838081816034
:100C100080838081806880831092C1000895833032
:100C200081F028F4813099F08230A9F0089587305E
:100C3000A9F08830C9F08430B1F4809180008F7DB4
:100C400003C0809180008F7780938000089584B5E1
:100C50008F7784BD089584B58F7DFBCF8091B000E0
:100C60008F778093B00008958091B0008F7DF9CF89
:100C7000CF93DF9390E0FC01E358FF4F24918F5610
:100C80009F4FFC0184918823C9F090E0880F991F41
:100C9000FC01E754FF4FA591B491FC01E155FF4FD2
:100CA000C591D49161110DC09FB7F8948C91209596
:100CB00082238C938881282328839FBFDF91CF9143
:100CC0000895623051F49FB7F8943C91822F80953B
:100CD00083238C93E8812E2BEFCF8FB7F894EC9180
:100CE0002E2B2C938FBFEACF1F93CF93DF93282F08
:100CF00030E0F901E759FF4F8491F901E358FF4FC4
:100D0000D491F901EF56FF4FC491CC23A9F0162FCF
:100D100081110E940F06EC2FF0E0EE0FFF1FE1554E
:100D2000FF4FA591B4918FB7F894EC91111108C0C1
:100D3000D095DE23DC938FBFDF91CF911F91089573
:100D4000DE2BF8CFCF93DF93282F30E0F901E7595E
:100D5000FF4F8491F901E358FF4FD491F901EF5609
:100D6000FF4FC491CC23A1F081110E940F06EC2FFC
:100D7000F0E0EE0FFF1FEB55FF4FA591B491EC9102
:100D8000ED2381E090E009F480E0DF91CF910895B8
:100D900080E090E0FACFDC0115966C9315971696DB
:100DA0004C93169770E0FB01E358FF4FE4911796C0
:100DB000EC9317976F567F4FFB01649118966C93D5
:100DC000189740E85EE360E070E01D964D935D93F8
:100DD0006D937C93509708951F93CF93DF93EC010D
:100DE000162F62E08D810E9438060E945F05605DCB
:100DF00077408109910969877A878B879C871A8B4D
:100E0000DF91CF911F910895CF92DF92EF92FF92E1
:100E1000CF93DF93DC011796CC911797D0E0611147
:100E2000DC2F18962C91189730E0220F331F2B558A
:100E30003F4F50E040E0F90185919491FC01F08032
:100E4000BA0190E080E0EF2DEC23ED1310C04F5F6E
:100E50005F4F1D96CD90DD90ED90FC9050976C15F6
:100E60007D058E059F0538F36FEF7FEFCB01DF9196
:100E7000CF91FF90EF90DF90CF9008958F929F9247
:100E8000AF92BF92CF92DF92EF92FF920F931F9398
:100E9000CF93DF93CDB7DEB7C054D1400FB6F894EF
:100EA000DEBF0FBECDBF8C01F62E0E945F05F11094
:100EB00029C0F801C184D284E384F4849B01AC018D
:100EC0002C193D094E095F0969017A0130EDC316FD
:100ED00037E0D306E104F104A8F48189C05CDE4F59
:100EE0000FB6F894DEBF0FBECDBFDF91CF911F913B
:100EF0000F91FF90EF90DF90CF90BF90AF909F90B9
:100F00008F900895F8016187728783879487148290
:100F1000138212821182108262E085810E9438065B
:100F200061E070E080E090E00E94900561E0F801EF
:100F300085810E94380660E0F80185810E94740670
:100F4000F801868185518230E8F48CE494E00E94B7
:100F5000C90562E0F80185810E943806F80182899E
:100F600090E00E94C905F89460E0C8010E9404075F
:100F70006F3F7F4F8F4F9F4F61F4F801118A789434
:100F800080E0ACCF64E170E080E090E00E949005EA
:100F9000E0CF61E0C8010E9404076F3F7F4F8F4F91
:100FA0009F4F59F39E012F5F3F4F79015E013FEB49
:100FB000A31A3EEFB30A670160E0C8010E9404076C
:100FC000F601608371838283938361E0C8010E948C
:100FD0000407F6016483758386839783F8E0CF0E58
:100FE000D11CCA14DB0441F7789430E020E0F7010B
:100FF00080809180A280B380448155816681778111
:10100000FFEF8F169F06AF06BF0631F04F3F8FEF01
:1010100058076807780719F4F801118AB1CFF90168
:1010200083E0F595E7958A95E1F7E00FF11F808160
:10103000880F84169506A606B706F0F080832F5F0A
:101040003F4FF8E0EF0EF11C2832310581F6F80130
:10105000448120818181280F3327331F8281280F0B
:10106000311D8381820F932F911D992748171906EF
:1010700099F681E0818B32CF8160E0CFCF92DF9211
:10108000EF92FF920F931F93CF93DF938C01C62FA4
:10109000642F0E943E07882341F0F80186818C303E
:1010A00009F45DC038F48B30E1F060E070E080EC72
:1010B0009FE74CC085518230C0F7D2816D2F70E020
:1010C000762F662766277F778381682B90E080E004
:1010D0000E940F102DEC3CEC4CEC5DE30E94C6101E
:1010E00059C0628170E090E080E00E940F106B01B7
:1010F0007C01F801D381D7FF0AC0AC019B0160E0FD
:1011000070E080E89FEB0E94FC0E6B017C01DF70B9
:101110006D2F70E090E080E00E9411102DEC3CEC0F
:101120004CEC5DE30E94C610A70196010E94FD0EE3
:10113000CC2361F026E636E646EE5FE30E94C61059
:1011400020E030E040E052E40E94FD0EDF91CF91BC
:101150001F910F91FF90EF90DF90CF900895D28173
:101160006D2F70E090E080E00E940F106B017C0119
:10117000F80163816F7070E090E080E00E941110D0
:101180002DEC3CEC4CEC5DE30E94C610A7019601EF
:101190000E94FD0ED7FFCCCF9058CACFCF92DF92DE
:1011A000EF92FF92CF93DF93EC010E943E078823DA
:1011B00041F08E818B3028F08D3040F085518230A7
:1011C00030F160E070E080EC9FE71AC0698170E068
:1011D00090E080E00E9411102DEC3CEC4CEC5DE3C3
:1011E0000E94C6106B017C01688170E090E080E095
:1011F0000E9411109B01AC01C701B6010E94FD0EB7
:10120000DF91CF91FF90EF90DF90CF9008956881AC
:10121000798176276727762790E080E00E940F107B
:101220002DEC3CEC4CEC5DE30E94C610E9CF862F20
:10123000E0912202F0912302309711F0BA01099453
:101240000895862FE0912002F0912102309711F04D
:10125000BA0109940895862FE0911E02F0911F02B1
:10126000309711F0BA0109940895862FE0911C027D
:10127000F0911D02309711F0BA0109940895862F5C
:10128000E0911A02F0911B02309711F0BA01099413
:101290000895862FE0911802F0911902309711F00D
:1012A000BA0109940895CB01E0911602F09117025A
:1012B000309709F009940895862F642FE091140265
:1012C000F0911502309711F0A90109940895E09169
:1012D0001202F0911302309709F0099408950F93C8
:1012E0001F93CF93DF938C01805C9F4F0E94B20AC3
:1012F000E801CE5BDF4F40E450E0B801CE010E9430
:101300004F0BF801E058FF4F108231961182108286
:10131000FE96108230E020E047E159E060EECE0119
:101320000E94910B30E020E041E259E060E9CE01FB
:101330000E94910B30E020E04FE359E060ECCE01D9
:101340000E94910B30E020E049E459E060EDCE01CD
:101350000E94910B30E020E04BE259E064EFCE01B7
:101360000E94910B30E020E045E359E065EFCE01AB
:101370000E94910B30E020E043E559E061E7CE01A7
:101380000E94D60B30E020E04CE559E060EFCE0142
:101390000E94DE0B980149E05AE069E7CE010E9405
:1013A000BE0B98014AEE59E069EFCE010E94C60BD0
:1013B00030E020E047E659E06FEFCE01DF91CF91BA
:1013C0001F910F910C94C60B45E062E0805C9F4F2B
:1013D0000C941D0B009711F00C94E40908950F93E1
:1013E0001F93FC01E058FF4F2081222379F03196B2
:1013F0000190F081E02D8F010E5F1F4F2250330BC3
:1014000041816081805C9F4F0E94B60A1F910F91BD
:101410000895009711F00C94EF09089584E292E08A
:101420000C946F095F926F927F928F929F92AF920E
:10143000BF92CF92DF92EF92FF920F931F93CF93C1
:10144000DF935C016901DA015C90232B19F4CC2451
:10145000CA94DC2C8A013A01660E771ED0E0C0E007
:10146000F12CE12C87E0882E912C6016710609F48E
:1014700043C0EC14FD0408F065C0F80161918F01D0
:10148000D5018D919C910C2E01C0660F0A94EAF74C
:1014900065296F77DC01ED91FC910190F081E02DE1
:1014A0000995BFEFEB1AFB0AF8013197608170E0F4
:1014B000C4018C1B9D0B02C0759567958A95E2F758
:1014C000562E2196C730D10580F2CE14DF0469F282
:1014D000F50180819181652D6F77DC01ED91FC91A3
:1014E0000190F081E02D0995BFEFEB1AFB0A551C26
:1014F0005524551C2797E6CF209721F1EC14FD04C5
:1015000008F5F5018081918161E070E001C0660F0E
:10151000CA95EAF761506521DC01ED91FC910190DB
:10152000F081E02DDF91CF911F910F91FF90EF900F
:10153000DF90CF90BF90AF909F908F907F906F90F3
:101540005F900994DF91CF911F910F91FF90EF90E1
:10155000DF90CF90BF90AF909F908F907F906F90D3
:101560005F900895FC01118210820895CF92DF925E
:10157000EF92FF920F931F93CF93DF93FC01A08113
:10158000B181109709F450C068018901F42EE62E4C
:10159000EC01ED91FC9111970190F081E02D60EF4D
:1015A000CD01099588819981DC01ED91FC91019033
:1015B000F081E02D69E7099588819981DC01ED9141
:1015C000FC910190F081E02D6E2D09958881998123
:1015D000DC01ED91FC910190F081E02D6F2D0995DA
:1015E00076010C0D1D1DE016F10661F030E020E0E3
:1015F000A70161E070E0CE010E94120ABFEFEB1A72
:10160000FB0AF1CF88819981DC01ED91FC91019079
:10161000F081E02D67EFDF91CF911F910F91FF9047
:10162000EF90DF90CF900994DF91CF911F910F91B0
:10163000FF90EF90DF90CF9008950F931F93CF937B
:10164000DF93FC01A081B181109721F1042F162FA7
:10165000EC01ED91FC9111970190F081E02D69EF83
:10166000CD01099588819981DC01ED91FC91019072
:10167000F081E02D612F099588819981DC01ED9140
:10168000FC910190F081E02D602FDF91CF911F91AF
:101690000F910994DF91CF911F910F910895FC0153
:1016A0007283618354834383158216821086178266
:1016B0001186138612861586148617861686118A59
:1016C000108A138A128A158A148A178A168A118E2A
:1016D000108E138E128E158E148E178E168E11A2EA
:1016E00010A213A212A215A214A217A216A211A64A
:1016F00010A613A612A615A614A617A616A611AA1A
:1017000010AA13AA12AA15AA14AA17AA16AA11AEE9
:1017100010AE13AE12AE81E0672B09F080E080833B
:101720000895FC01603DD9F028F4603971F0603C07
:1017300089F00895643FC1F0653FD9F0603EE9F457
:1017400055A344A335872487089557A346A3378715
:101750002687089551A740A7318B208B089553A762
:1017600042A7338B228B089555A744A7358B248B32
:10177000089557A746A7378B268B0895693729F414
:10178000FC0157AB46AB318F208F0895FC01693FB8
:1017900019F06F3F31F0089551AF40AF338F228F72
:1017A000089553AF42AF33A322A30895613729F4BC
:1017B000FC0153AB42AB378F268F0895FC0155AB2C
:1017C00044AB31A320A308951F920F920FB60F923E
:1017D00011242F933F934F935F936F937F938F9336
:1017E0009F93AF93BF93EF93FF938091E50287FFA1
:1017F00027C010928500109284008091E5028F5FCF
:101800008093E5028091E502082E000C990B20914F
:10181000E4022817190629F024F08091E5028C30A3
:10182000DCF18091840090918500049680349C497D
:1018300008F47BC08091840090918500049677C065
:101840008091E502082E000C990B2091E4022817E4
:10185000190699F294F2E091E5028E2FEE0F990BA2
:10186000FC01EE0FFF1FE80FF91FEA51FD4F8081C9
:1018700086FFC3CFE091E5028E2FEE0F990BFC019E
:10188000EE0FFF1FE80FF91FEA51FD4F808160E066
:101890008F730E947406B1CF20918400309185002F
:1018A000E091E5028E2FEE0F990BFC01EE0FFF1F6A
:1018B000E80FF91FEA51FD4F81819281820F931F3A
:1018C0009093890080938800E091E5028E2FEE0FBF
:1018D000990BFC01EE0FFF1FE80FF91FEA51FD4FB6
:1018E000808186FF11C0E091E5028E2FEE0F990BEB
:1018F000FC01EE0FFF1FE80FF91FEA51FD4F808139
:1019000061E08F730E947406FF91EF91BF91AF91D8
:101910009F918F917F916F915F914F913F912F9107
:101920000F900FBE0F901F90189580E49CE9909344
:101930008900809388008FEF8093E502E5CF809146
:10194000390390913A03891B990B089590913A03BA
:10195000809139032FEF3FEF981748F4E92FF0E01B
:10196000E55CFC4F208130E09F5F90933A03C90112
:101970000895E0913A0380913903E81730F4F0E0DC
:10198000E55CFC4F808190E008958FEF9FEF089514
:101990000895CF93DF931F92CDB7DEB7698320916F
:1019A00016032223F9F020911703203258F021E08A
:1019B00030E0FC013383228390E080E00F90DF91E0
:1019C000CF91089580911803E82FF0E0E75EFC4F77
:1019D000998190838F5F809318038093170381E030
:1019E00090E0ECCF61E0CE0101960E94610DF7CF4F
:1019F000CF92DF92EF92FF920F931F93CF93DF93DB
:101A00007C01CB018A0120911603222389F0EB018E
:101A10006B01C40ED51ECC15DD0569F06991D701A7
:101A2000ED91FC910190F081E02DC7010995F3CF74
:101A3000642F0E94610DC801DF91CF911F910F911A
:101A4000FF90EF90DF90CF900895EAE0F3E01382EB
:101A5000128288EE93E0A0E0B0E084839583A683B1
:101A6000B78384E491E09183808308951092CE033C
:101A700081E08093CC031092CB0361E082E10E946D
:101A8000740661E083E10E947406E9EBF0E0808176
:101A90008E7F808380818D7F808388E48093B800EF
:101AA00085E48093BC000895ECEBF0E080818A7BB4
:101AB000808360E082E10E94740660E083E10C9420
:101AC000740620917D03260F3327331F2132310501
:101AD000ECF42091CE03FC0190E080E0243069F02A
:101AE00082E00895A0917D032191AC0141585C4FA3
:101AF000A40FB52FB11D2C930196861798F38091F2
:101B00007D03680F60937D0380E0089581E0089570
:101B100085EC8093BC001092CE030895CF93DF93A1
:101B200091E09093C603882361F0C091B800D091F2
:101B3000BA000E94540D0E94360DD093BA00C09393
:101B4000B800DF91CF91089585ED8093BC0080911E
:101B5000C7039091C803A091C903B091CA03079627
:101B6000A11DB11D23E0B695A795979587952A9558
:101B7000D1F72091BC0024FD03C01092CE0308953C
:101B80004091C7035091C8036091C9037091CA0383
:101B9000452B462B472B69F30097A105B10541F072
:101BA0002AE22A95F1F700C00197A109B109E1CF16
:101BB0008091C5030C948E0D1F920F920FB60F9259
:101BC00011242F933F934F935F936F937F938F9342
:101BD0009F93AF93BF93EF93FF938091B900887F5A
:101BE000803609F44CC008F03FC0883209F4A8C020
:101BF00018F5803109F49CC0B8F4882309F4F9C0C1
:101C0000883009F495C0FF91EF91BF91AF919F91FA
:101C10008F917F916F915F914F913F912F910F9095
:101C20000FBE0F901F901895883109F489C080323B
:101C300051F780935B0315C0803409F49EC048F4CB
:101C40008033B9F38833F9F680935B030E94880DE3
:101C5000DACF803509F485C0883509F496C0883418
:101C600091F60E94A40DCFCF883909F48CC038F5C5
:101C7000883729F050F4883611F0803721F683E058
:101C80008093CE0310925C0357C0883809F47BC060
:101C9000803919F0803809F0B6CF80915C0380322A
:101CA00008F071C0E0915C0381E08E0F80935C03CB
:101CB0008091BB00F0E0E35AFC4F80833DC0803B45
:101CC00039F0E0F4803A09F479C0883A09F09BCF02
:101CD00084E08093CE0310927E0310927D03E09106
:101CE000C303F091C403099580917D0381110FC056
:101CF00081E080937D0310927F0309C0803C09F44A
:101D000076C0883C09F473C0883B09F07CCFE09131
:101D10007E0381E08E0F80937E03F0E0E158FC4F5C
:101D200080818093BB0090917E0380917D0329C0C8
:101D30008091CD038093BB0085EC8093BC0063CF82
:101D40009091A00380919F03981758F5E091A0030C
:101D500081E08E0F8093A003F0E0EF55FC4F80816F
:101D6000E9CFE091A00381E08E0F8093A0038091E2
:101D7000BB00F0E0EF55FC4F80839091A003809171
:101D80009F039817C8F285E8D8CFE091A00381E0BF
:101D90008E0F8093A0038091BB00F0E0EF55FC4FC5
:101DA00080838091CC0381115CCF81E08093CB0351
:101DB00084EA8093BC001092CE0325CF0E94880D48
:101DC00080915C03803230F4E0915C03F0E0E35AF0
:101DD000FC4F108260915C0370E0E091C103F091D0
:101DE000C2038DE593E0099510925C030CCF85EC5E
:101DF000E0CF10925B0335CF5058BB27AA270E9433
:101E0000140F0C9487100E94791038F00E948010F3
:101E100020F039F49F3F19F426F40C9476100EF458
:101E2000E095E7FB0C947010E92F0E94981058F38E
:101E3000BA17620773078407950720F079F4A6F5AF
:101E40000C94BA100EF4E0950B2EBA2FA02D0B01B6
:101E5000B90190010C01CA01A0011124FF27591BEF
:101E600099F0593F50F4503E68F11A16F040A22FF5
:101E7000232F342F4427585FF3CF46953795279566
:101E8000A795F0405395C9F77EF41F16BA0B620B65
:101E9000730B840BBAF09150A1F0FF0FBB1F661FAC
:101EA000771F881FC2F70EC0BA0F621F731F841FEF
:101EB00048F4879577956795B795F7959E3F08F015
:101EC000B0CF9395880F08F09927EE0F97958795D7
:101ED00008950E944C1008F481E008950E94820F3A
:101EE0000C9487100E94801058F00E94791040F0E6
:101EF00029F45F3F29F00C94701051110C94BB1021
:101F00000C9476100E94981068F39923B1F355232E
:101F100091F3951B550BBB27AA27621773078407FC
:101F200038F09F5F5F4F220F331F441FAA1FA9F392
:101F300035D00E2E3AF0E0E832D091505040E69580
:101F4000001CCAF72BD0FE2F29D0660F771F881FE1
:101F5000BB1F261737074807AB07B0E809F0BB0BD4
:101F6000802DBF01FF2793585F4F3AF09E3F5105E8
:101F700078F00C9470100C94BB105F3FE4F3983E23
:101F8000D4F3869577956795B795F7959F5FC9F7D1
:101F9000880F911D9695879597F90895E1E0660F52
:101FA000771F881FBB1F621773078407BA0720F0CB
:101FB000621B730B840BBA0BEE1F88F7E095089534
:101FC0000E94A01088F09F5798F0B92F9927B75119
:101FD000B0F0E1F0660F771F881F991F1AF0BA95CD
:101FE000C9F714C0B13091F00E94BA10B1E0089561
:101FF0000C94BA10672F782F8827B85F39F0B93F53
:10200000CCF3869577956795B395D9F73EF490957F
:102010008095709561957F4F8F4F9F4F0895E894FD
:1020200009C097FB3EF490958095709561957F4F20
:102030008F4F9F4F9923A9F0F92F96E9BB279395CE
:10204000F695879577956795B795F111F8CFFAF4DE
:10205000BB0F11F460FF1BC06F5F7F4F8F4F9F4F0F
:1020600016C0882311F096E911C0772321F09EE86D
:10207000872F762F05C0662371F096E8862F70E0D3
:1020800060E02AF09A95660F771F881FDAF7880FAD
:102090009695879597F90895990F0008550FAA0B03
:1020A000E0E8FEEF16161706E807F907C0F012166B
:1020B0001306E407F50798F0621B730B840B950B6E
:1020C00039F40A2661F0232B242B252B21F40895C3
:1020D0000A2609F4A140A6958FEF811D811D089560
:1020E00097F99F6780E870E060E008959FEF80ECCB
:1020F000089500240A94161617061806090608956E
:1021000000240A9412161306140605060895092ED3
:102110000394000C11F4882352F0BB0F40F4BF2B42
:1021200011F460FF04C06F5F7F4F8F4F9F4F089582
:1021300057FD9058440F551F59F05F3F71F0479578
:10214000880F97FB991F61F09F3F79F0879508955D
:10215000121613061406551FF2CF4695F1DF08C07C
:10216000161617061806991FF1CF86957105610599
:1021700008940895E894BB2766277727CB0197F941
:1021800008950E944C1008F48FEF08950E94D91012
:102190000C9487100E94791038F00E94801020F073
:1021A000952311F00C9470100C94761011240C945B
:1021B000BB100E94981070F3959FC1F3950F50E0EB
:1021C000551F629FF001729FBB27F00DB11D639FE9
:1021D000AA27F00DB11DAA1F649F6627B00DA11D8F
:1021E000661F829F2227B00DA11D621F739FB00D35
:1021F000A11D621F839FA00D611D221F749F3327A5
:10220000A00D611D231F849F600D211D822F762F3D
:102210006A2F11249F5750409AF0F1F088234AF01A
:10222000EE0FFF1FBB1F661F771F881F9150504086
:10223000A9F79E3F510580F00C9470100C94BB10D0
:102240005F3FE4F3983ED4F3869577956795B7950D
:10225000F795E7959F5FC1F7FE2B880F911D969527
:10226000879597F908950E944C10880B990B089553
:10227000F8940C946311A1E21A2EAA1BBB1BFD015A
:102280000DC0AA1FBB1FEE1FFF1FA217B307E40755
:10229000F50720F0A21BB30BE40BF50B661F771FAD
:1022A000881F991F1A9469F760957095809590958D
:1022B0009B01AC01BD01CF010895EE0FFF1F0590FA
:0A22C000F491E02D0994F894FFCF8B
:1022CA00FF48756D69646974793A200025202054A5
:1022DA00656D70657261747572653A200043000D10
:1022EA000A006E616E00696E66006F766600000015
:1022FA0000008701C80228016701FA0014010601DB
:10230A0000000000C90CF80CC502C80C9F0CA60CF2
:02231A00B90CFC
:00000001FF
