:100000000C9460000C9488000C9488000C94880078
:100010000C9488000C9488000C9488000C940B03BA
:100020000C9488000C9488000C9488000C94BB07F6
:100030000C9488000C9488000C9488000C94880020
:100040000C9478030C9488000C94ED010C941F021E
:100050000C9488000C9488000C9488000C94880000
:100060000C94B3090C9488000200000008000201FF
:10007000000003040700000000000000000102046B
:10008000081020408001020408102001020408101A
:100090002004040404040404040202020202020311
:1000A000030303030300000000250028002B0000C9
:1000B000000000240027002A00004F02E505FC088C
:1000C00011241FBECFEFD8E0DEBFCDBF11E0A0E00E
:1000D000B1E0E0E0F6E102C005900D92AE32B1076A
:1000E000D9F723E0AEE2B1E001C01D92A839B20712
:1000F000E1F710E0C0E6D0E004C02197FE010E94C5
:10010000F80ACD35D107C9F70E9469030C94D30AC8
:100110000C94000061E08DE00E94840426E040E839
:1001200055E260E070E08EE291E00E948B0161E0B8
:1001300071E08EE291E00C94BF0261E08DE00E94DC
:10014000C00464E670E080E090E00E94E70360E0B5
:100150008DE00E94C00464E670E080E090E00C94C2
:10016000E703FC01918D228D892F90E0805C9F4FE9
:10017000821B91098F7399270895FC01918D828DBF
:10018000981731F0828DE80FF11D858D90E008956C
:100190008FEF9FEF0895FC01918D828D981761F08C
:1001A000A28DAE0FBF2FB11D5D968C91928D9F5F7A
:1001B0009F73928F90E008958FEF9FEF0895FC0159
:1001C000538D448D252F30E0842F90E0821B930BBC
:1001D000541710F0CF9608950197089585E492E0A2
:1001E000892B49F080E090E0892B29F00E9445029C
:1001F00081110C9400000895FC01A48DA80FB92F63
:10020000B11DA35ABF4F2C91848D90E001968F733E
:100210009927848FA689B7892C93A089B1898C915D
:10022000837080648C93938D848D981306C00288AC
:10023000F389E02D80818F7D80830895CF93DF93B4
:10024000EC01888D8823B9F0AA89BB89E889F989EE
:100250008C9185FD03C0808186FD0DC00FB607FC23
:10026000F7CF8C9185FFF2CF808185FFEDCFCE0156
:100270000E94FC00E9CFDF91CF910895EF92FF92A9
:100280000F931F93CF93DF93EC0181E0888F9B8DB9
:100290008C8D98131AC0E889F989808185FF15C073
:1002A0009FB7F894EE89FF896083E889F989808196
:1002B0008370806480839FBF81E090E0DF91CF9165
:1002C0001F910F91FF90EF900895F62E0B8D10E087
:1002D0000F5F1F4F0F731127E02E8C8D8E110CC0F6
:1002E0000FB607FCFACFE889F989808185FFF5CF41
:1002F000CE010E94FC00F1CFEB8DEC0FFD2FF11D24
:10030000E35AFF4FF0829FB7F8940B8FEA89FB897D
:1003100080818062CFCFCF92DF92EF92FF921F93C6
:10032000CF93DF93EC016A017B01122FE889F989F1
:1003300082E08083C11481EED806E104F104A1F0CB
:1003400060E079E08DE390E0A70196010E94D60A73
:1003500021503109410951095695479537952795FF
:10036000211580E1380798F0E889F989108260E862
:1003700074E88EE190E0A70196010E94D60A215010
:100380003109410951095695479537952795EC85CF
:10039000FD853083EE85FF852083188EEC89FD89ED
:1003A0001083EA89FB89808180618083EA89FB89E7
:1003B000808188608083EA89FB898081806880836E
:1003C000EA89FB8980818F7D8083DF91CF911F91A6
:1003D000FF90EF90DF90CF9008951F920F920FB68D
:1003E0000F9211242F938F939F93EF93FF93E0919C
:1003F0003E01F0913F018081E0914401F09145017F
:1004000082FD1BC09081809147018F5F8F73209187
:100410004801821741F0E0914701F0E0E25DFE4FB4
:10042000958F80934701FF91EF919F918F912F912D
:100430000F900FBE0F901F9018958081F4CF1F92E0
:100440000F920FB60F9211242F933F934F935F9308
:100450006F937F938F939F93AF93BF93EF93FF938C
:100460008EE291E00E94FC00FF91EF91BF91AF916D
:100470009F918F917F916F915F914F913F912F91BC
:100480000F900FBE0F901F9018958EE291E00E9482
:10049000B10021E0892B09F420E0822F0895EEE2DB
:1004A000F1E01382128288EE93E0A0E0B0E0848352
:1004B0009583A683B7838DE091E09183808385EC5B
:1004C00090E09587848784EC90E09787868780EC1E
:1004D00090E0918B808B81EC90E0938B828B82EC0F
:1004E00090E0958B848B86EC90E0978B868B118EB9
:1004F000128E138E148E089590E080E00895AF92CE
:10050000BF92CF92DF92EF92FF920F931F93CF9300
:10051000DF936C017B018B01040F151FEB015E0162
:10052000AE18BF08C017D10759F06991D601ED91F7
:10053000FC910190F081E02DC6010995892B79F796
:10054000C501DF91CF911F910F91FF90EF90DF9048
:10055000CF90BF90AF900895FB0101900020E9F784
:100560003197AF01461B570BDC01ED91FC910280E6
:10057000F381E02D099466E071E00C94AC020F93D6
:100580001F93CF93DF938C01D0E0C0E0611571051C
:1005900019F00E94AC02EC01C8010E94BB028C0F52
:1005A0009D1FDF91CF911F910F910895813039F0F8
:1005B00018F0823051F0089510926E0008958091E5
:1005C0006F008D7F80936F000895809170008D7F04
:1005D0008093700081E08093B0008091B100887FAB
:1005E00084608093B1001092B3000895CF93C82F18
:1005F00080910001C8130DC0E8E6F0E084919FEF00
:10060000909300010E94D60260E08C2FCF910C9451
:10061000C0048FEFF7CF1F920F920FB60F921124E5
:100620002F933F934F935F936F937F938F939F93FA
:10063000AF93BF93EF93FF938091CE019091CF0141
:10064000A091D001B091D101892B8A2B8B2BD1F1B4
:100650009091CB01E091CC01F091CD01808189276F
:1006600080838091CE019091CF01A091D001B09173
:10067000D101181619061A061B069CF48091CE01AA
:100680009091CF01A091D001B091D1010197A10922
:10069000B1098093CE019093CF01A093D001B09384
:1006A000D101FF91EF91BF91AF919F918F917F9178
:1006B0006F915F914F913F912F910F900FBE0F90CF
:1006C0001F901895809100010E94F602EACF0895CC
:1006D00008950E9420040E9468030E948A00CEEEC2
:1006E000D0E00E949D002097E1F30E94EE00F9CF38
:1006F0001F920F920FB60F9211242F933F938F9357
:100700009F93AF93BF938091D3019091D401A09117
:10071000D501B091D6013091D20123E0230F2D37BE
:1007200058F50196A11DB11D2093D2018093D301EC
:100730009093D401A093D501B093D6018091D701B5
:100740009091D801A091D901B091DA010196A11D33
:10075000B11D8093D7019093D801A093D901B09394
:10076000DA01BF91AF919F918F913F912F910F909F
:100770000FBE0F901F90189526E8230F0296A11D1B
:10078000B11DD2CF3FB7F8948091D7019091D80195
:10079000A091D901B091DA0126B5A89B05C02F3FE1
:1007A00019F00196A11DB11D3FBFBA2FA92F982F97
:1007B0008827BC01CD01620F711D811D911D42E092
:1007C000660F771F881F991F4A95D1F708958F925A
:1007D0009F92AF92BF92CF92DF92EF92FF926B0106
:1007E0007C010E94C2034B015C01C114D104E104ED
:1007F000F104E9F00E9467030E94C20368197909B5
:100800008A099B09683E73408105910570F321E0D8
:10081000C21AD108E108F10888EE880E83E0981E1C
:10082000A11CB11CC114D104E104F10429F7FF900B
:10083000EF90DF90CF90BF90AF909F908F900895F2
:10084000789484B5826084BD84B5816084BD85B5AB
:10085000826085BD85B5816085BDEEE6F0E0808172
:1008600081608083E1E8F0E0108280818260808393
:10087000808181608083E0E8F0E080818160808316
:10088000E1EBF0E0808184608083E0EBF0E0808148
:1008900081608083EAE7F0E08081846080838081EA
:1008A0008260808380818160808380818068808392
:1008B0001092C1000895833081F028F4813099F0BE
:1008C0008230A9F008958730A9F08830C9F08430CB
:1008D000B1F4809180008F7D03C0809180008F777C
:1008E00080938000089584B58F7784BD089584B582
:1008F0008F7DFBCF8091B0008F778093B0000895FB
:100900008091B0008F7DF9CFCF93DF9390E0FC0111
:10091000E358FF4F24918F569F4FFC018491882309
:10092000C9F090E0880F991FFC01E155FF4FA59198
:10093000B491FC01EB55FF4FC591D49161110DC0ED
:100940009FB7F8948C91209582238C9388812823DB
:1009500028839FBFDF91CF910895623051F49FB7F4
:10096000F8943C91822F809583238C93E8812E2BE1
:10097000EFCF8FB7F894EC912E2B2C938FBFEACF4B
:100980001F93CF93DF93282F30E0F901E759FF4FF2
:100990008491F901E358FF4FD491F901EF56FF4FCD
:1009A000C491CC23A9F0162F81110E945B04EC2F77
:1009B000F0E0EE0FFF1FEB55FF4FA591B4918FB7FD
:1009C000F894EC91111108C0D095DE23DC938FBF11
:1009D000DF91CF911F910895DE2BF8CF862FE09104
:1009E000EB01F091EC01309711F0BA0109940895F0
:1009F000862FE091E901F091EA01309711F0BA01F8
:100A000009940895862FE091E701F091E80130976D
:100A100011F0BA0109940895862FE091E501F09153
:100A2000E601309711F0BA0109940895862FE091FC
:100A3000E301F091E401309711F0BA0109940895AF
:100A4000862FE091E101F091E201309711F0BA01B7
:100A500009940895CB01E091DF01F091E001309716
:100A600009F009940895862F642FE091DD01F0913B
:100A7000DE01309711F0A90109940895E091DB019E
:100A8000F091DC01309709F0099408950F931F93BA
:100A9000CF93DF938C01805C9F4F0E948906E80111
:100AA000CE5BDF4F40E450E0B801CE010E94260744
:100AB000F801E058FF4F1082319611821082FE96A5
:100AC000108230E020E04EEE54E060EECE010E9455
:100AD000680730E020E048EF54E060E9CE010E9472
:100AE000680730E020E046E155E060ECCE010E946E
:100AF000680730E020E040E255E060EDCE010E9462
:100B0000680730E020E042E055E064EFCE010E944B
:100B1000680730E020E04CE055E065EFCE010E9430
:100B2000680730E020E04AE255E061E7CE010E942C
:100B3000AD0730E020E043E355E060EFCE010E94D6
:100B4000B507980140EE55E069E7CE010E94950790
:100B5000980141EC55E069EFCE010E949D0730E01D
:100B600020E04EE355E06FEFCE01DF91CF911F9172
:100B70000F910C949D0745E062E0805C9F4F0C94C0
:100B8000F406009711F00C94BB0508950F931F9382
:100B9000FC01E058FF4F2081222379F0319601902B
:100BA000F081E02D8F010E5F1F4F2250330B4181EA
:100BB0006081805C9F4F0E948D061F910F91089568
:100BC000009711F00C94C60508958DEE91E00C94F9
:100BD00046055F926F927F928F929F92AF92BF92E3
:100BE000CF92DF92EF92FF920F931F93CF93DF93F9
:100BF0005C016901DA015C90232B19F4CC24CA94BE
:100C0000DC2C8A013A01660E771ED0E0C0E0F12CA0
:100C1000E12C87E0882E912C6016710609F443C000
:100C2000EC14FD0408F065C0F80161918F01D50155
:100C30008D919C910C2E01C0660F0A94EAF76529EC
:100C40006F77DC01ED91FC910190F081E02D099529
:100C5000BFEFEB1AFB0AF8013197608170E0C40125
:100C60008C1B9D0B02C0759567958A95E2F7562EF1
:100C70002196C730D10580F2CE14DF0469F2F50168
:100C800080819181652D6F77DC01ED91FC91019060
:100C9000F081E02D0995BFEFEB1AFB0A551C552496
:100CA000551C2797E6CF209721F1EC14FD0408F599
:100CB000F5018081918161E070E001C0660FCA9505
:100CC000EAF761506521DC01ED91FC910190F08122
:100CD000E02DDF91CF911F910F91FF90EF90DF906A
:100CE000CF90BF90AF909F908F907F906F905F90CC
:100CF0000994DF91CF911F910F91FF90EF90DF90BA
:100D0000CF90BF90AF909F908F907F906F905F90AB
:100D10000895FC01118210820895CF92DF92EF9224
:100D2000FF920F931F93CF93DF93FC01A081B181BA
:100D3000109709F450C068018901F42EE62EEC01E9
:100D4000ED91FC9111970190F081E02D60EFCD01C4
:100D5000099588819981DC01ED91FC910190F081E8
:100D6000E02D69E7099588819981DC01ED91FC917D
:100D70000190F081E02D6E2D099588819981DC012B
:100D8000ED91FC910190F081E02D6F2D0995760198
:100D90000C0D1D1DE016F10661F030E020E0A7010A
:100DA00061E070E0CE010E94E905BFEFEB1AFB0A9B
:100DB000F1CF88819981DC01ED91FC910190F08166
:100DC000E02D67EFDF91CF911F910F91FF90EF9092
:100DD000DF90CF900994DF91CF911F910F91FF90F9
:100DE000EF90DF90CF9008950F931F93CF93DF93F1
:100DF000FC01A081B181109721F1042F162FEC0185
:100E0000ED91FC9111970190F081E02D69EFCD01FA
:100E1000099588819981DC01ED91FC910190F08127
:100E2000E02D612F099588819981DC01ED91FC917C
:100E30000190F081E02D602FDF91CF911F910F91F4
:100E40000994DF91CF911F910F910895FC01728356
:100E5000618354834383158216821086178211861C
:100E6000138612861586148617861686118A108AAE
:100E7000138A128A158A148A178A168A118E108E7E
:100E8000138E128E158E148E178E168E11A210A22E
:100E900013A212A215A214A217A216A211A610A69E
:100EA00013A612A615A614A617A616A611AA10AA6E
:100EB00013AA12AA15AA14AA17AA16AA11AE10AE3E
:100EC00013AE12AE81E0672B09F080E080830895B5
:100ED000FC01603DD9F028F4603971F0603C89F084
:100EE0000895643FC1F0653FD9F0603EE9F455A331
:100EF00044A335872487089557A346A337872687B9
:100F0000089551A740A7318B208B089553A742A77E
:100F1000338B228B089555A744A7358B248B0895D6
:100F200057A746A7378B268B0895693729F4FC010C
:100F300057AB46AB318F208F0895FC01693F19F004
:100F40006F3F31F0089551AF40AF338F228F089536
:100F500053AF42AF33A322A30895613729F4FC01B4
:100F600053AB42AB378F268F0895FC0155AB44AB92
:100F700031A320A308951F920F920FB60F92112450
:100F80002F933F934F935F936F937F938F939F9391
:100F9000AF93BF93EF93FF938091AE0287FF27C07B
:100FA00010928500109284008091AE028F5F809332
:100FB000AE028091AE02082E000C990B2091AD027A
:100FC0002817190629F024F08091AE028C30DCF14C
:100FD0008091840090918500049680349C4908F4A7
:100FE0007BC08091840090918500049677C08091A9
:100FF000AE02082E000C990B2091AD02281719069D
:1010000099F294F2E091AE028E2FEE0F990BFC0153
:10101000EE0FFF1FE80FF91FE155FD4F808186FF9E
:10102000C3CFE091AE028E2FEE0F990BFC01EE0FB5
:10103000FF1FE80FF91FE155FD4F808160E08F73BE
:101040000E94C004B1CF2091840030918500E091CE
:10105000AE028E2FEE0F990BFC01EE0FFF1FE80F73
:10106000F91FE155FD4F81819281820F931F90936B
:10107000890080938800E091AE028E2FEE0F990BCD
:10108000FC01EE0FFF1FE80FF91FE155FD4F8081B6
:1010900086FF11C0E091AE028E2FEE0F990BFC017E
:1010A000EE0FFF1FE80FF91FE155FD4F808161E052
:1010B0008F730E94C004FF91EF91BF91AF919F91F8
:1010C0008F917F916F915F914F913F912F910F90F1
:1010D0000FBE0F901F90189580E49CE990938900B3
:1010E000809388008FEF8093AE02E5CF809102035A
:1010F00090910303891B990B0895909103038091AC
:1011000002032FEF3FEF981748F4E92FF0E0EC5F70
:10111000FC4F208130E09F5F90930303C901089545
:10112000E091030380910203E81730F4F0E0EC5FF4
:10113000FC4F808190E008958FEF9FEF0895089510
:10114000CF93DF931F92CDB7DEB769832091DF0283
:101150002223F9F02091E002203258F021E030E023
:10116000FC013383228390E080E00F90DF91CF91E8
:1011700008958091E102E82FF0E0EE51FD4F998152
:1011800090838F5F8093E1028093E00281E090E0A2
:10119000ECCF61E0CE0101960E943809F7CFCF92E3
:1011A000DF92EF92FF920F931F93CF93DF937C0117
:1011B000CB018A012091DF02222389F0EB016B0130
:1011C000C40ED51ECC15DD0569F06991D701ED91EE
:1011D000FC910190F081E02DC7010995F3CF642FB8
:1011E0000E943809C801DF91CF911F910F91FF90A4
:1011F000EF90DF90CF900895E3EDF2E0138212823A
:1012000088EE93E0A0E0B0E084839583A683B78363
:101210008FE191E09183808308951092970381E09C
:10122000809395031092940361E082E10E94C004D0
:1012300061E083E10E94C004E9EBF0E080818E7FF1
:10124000808380818D7F808388E48093B80085E4EB
:101250008093BC000895ECEBF0E080818A7B808372
:1012600060E082E10E94C00460E083E10C94C0046D
:1012700020914603260F3327331F21323105ECF42A
:1012800020919703FC0190E080E0243069F082E037
:101290000895A09146032191AC01485B5C4FA40FD7
:1012A000B52FB11D2C930196861798F380914603B4
:1012B000680F6093460380E0089581E0089585EC0F
:1012C0008093BC00109297030895CF93DF9391E031
:1012D00090938F03882361F0C091B800D091BA0039
:1012E0000E942B090E940D09D093BA00C093B80048
:1012F000DF91CF91089585ED8093BC00809190039C
:1013000090919103A0919203B09193030796A11D30
:10131000B11D23E0B695A795979587952A95D1F7A6
:101320002091BC0024FD03C01092970308954091C2
:101330009003509191036091920370919303452B18
:10134000462B472B69F30097A105B10541F02AE22E
:101350002A95F1F700C00197A109B109E1CF809169
:101360008E030C9465091F920F920FB60F921124F1
:101370002F933F934F935F936F937F938F939F939D
:10138000AF93BF93EF93FF938091B900887F80362E
:1013900009F44CC008F03FC0883209F4A8C018F521
:1013A000803109F49CC0B8F4882309F4F9C088306E
:1013B00009F495C0FF91EF91BF91AF919F918F91EB
:1013C0007F916F915F914F913F912F910F900FBE41
:1013D0000F901F901895883109F489C0803251F719
:1013E0008093240315C0803409F49EC048F48033F0
:1013F000B9F38833F9F6809324030E945F09DACFAA
:10140000803509F485C0883509F496C0883491F692
:101410000E947B09CFCF883909F48CC038F5883712
:1014200029F050F4883611F0803721F683E080935C
:1014300097031092250357C0883809F47BC0803980
:1014400019F0803809F0B6CF80912503803208F07A
:1014500071C0E091250381E08E0F80932503809178
:10146000BB00F0E0EA5DFC4F80833DC0803B39F07B
:10147000E0F4803A09F479C0883A09F09BCF84E01F
:10148000809397031092470310924603E0918C03D8
:10149000F0918D0309958091460381110FC081E081
:1014A000809346031092480309C0803C09F476C03B
:1014B000883C09F473C0883B09F07CCFE091470376
:1014C00081E08E0F80934703F0E0E85BFC4F808162
:1014D0008093BB00909147038091460329C080917F
:1014E00096038093BB0085EC8093BC0063CF909102
:1014F000690380916803981758F5E091690381E0CA
:101500008E0F80936903F0E0E659FC4F8081E9CFAC
:10151000E091690381E08E0F809369038091BB00A5
:10152000F0E0E659FC4F8083909169038091680355
:101530009817C8F285E8D8CFE091690381E08E0F53
:10154000809369038091BB00F0E0E659FC4F8083F3
:101550008091950381115CCF81E08093940384EAAC
:101560008093BC001092970325CF0E945F09809161
:101570002503803230F4E0912503F0E0EA5DFC4F72
:1015800010826091250370E0E0918A03F0918B0353
:1015900086E293E00995109225030CCF85ECE0CF0D
:1015A0001092240335CFF8940C94FE0AA1E21A2E6F
:1015B000AA1BBB1BFD010DC0AA1FBB1FEE1FFF1FF7
:1015C000A217B307E407F50720F0A21BB30BE40B47
:1015D000F50B661F771F881F991F1A9469F760958E
:1015E0007095809590959B01AC01BD01CF01089548
:1015F000EE0FFF1F0590F491E02D0994F894FFCFB2
:10160000FF564C4142000D0A00000000003E017FE1
:1016100002DF001E01B100CB00BD0000000000A0F1
:0E16200008CF087C029F0876087D089008001D
:00000001FF
